{
  "contractName": "ListaVotaciones",
  "abi": [
    {
      "inputs": [],
      "payable": false,
      "stateMutability": "nonpayable",
      "type": "constructor"
    },
    {
      "constant": true,
      "inputs": [],
      "name": "numVotaciones",
      "outputs": [
        {
          "internalType": "uint256",
          "name": "",
          "type": "uint256"
        }
      ],
      "payable": false,
      "stateMutability": "view",
      "type": "function"
    },
    {
      "constant": true,
      "inputs": [
        {
          "internalType": "uint256",
          "name": "",
          "type": "uint256"
        }
      ],
      "name": "votaciones",
      "outputs": [
        {
          "internalType": "uint256",
          "name": "id_votacion",
          "type": "uint256"
        },
        {
          "internalType": "string",
          "name": "titulo",
          "type": "string"
        },
        {
          "internalType": "address",
          "name": "id_creador",
          "type": "address"
        },
        {
          "internalType": "enum ListaVotaciones.Estado",
          "name": "estado",
          "type": "uint8"
        },
        {
          "internalType": "uint256",
          "name": "numCandidatos",
          "type": "uint256"
        },
        {
          "internalType": "uint256",
          "name": "numVotantes",
          "type": "uint256"
        }
      ],
      "payable": false,
      "stateMutability": "view",
      "type": "function"
    },
    {
      "constant": true,
      "inputs": [],
      "name": "getNumVotaciones",
      "outputs": [
        {
          "internalType": "uint256",
          "name": "",
          "type": "uint256"
        }
      ],
      "payable": false,
      "stateMutability": "view",
      "type": "function"
    },
    {
      "constant": true,
      "inputs": [
        {
          "internalType": "uint256",
          "name": "numVotacion",
          "type": "uint256"
        }
      ],
      "name": "getVotacion",
      "outputs": [
        {
          "internalType": "string",
          "name": "",
          "type": "string"
        }
      ],
      "payable": false,
      "stateMutability": "view",
      "type": "function"
    },
    {
      "constant": true,
      "inputs": [
        {
          "internalType": "uint256",
          "name": "numVotacion",
          "type": "uint256"
        },
        {
          "internalType": "uint256",
          "name": "numCandidato",
          "type": "uint256"
        }
      ],
      "name": "getCandidato",
      "outputs": [
        {
          "internalType": "string",
          "name": "",
          "type": "string"
        }
      ],
      "payable": false,
      "stateMutability": "view",
      "type": "function"
    },
    {
      "constant": false,
      "inputs": [
        {
          "internalType": "uint256",
          "name": "numVotacion",
          "type": "uint256"
        },
        {
          "internalType": "uint256",
          "name": "numCandidato",
          "type": "uint256"
        },
        {
          "internalType": "string",
          "name": "nuevoNombre",
          "type": "string"
        }
      ],
      "name": "setCandidato",
      "outputs": [],
      "payable": false,
      "stateMutability": "nonpayable",
      "type": "function"
    },
    {
      "constant": true,
      "inputs": [
        {
          "internalType": "uint256",
          "name": "numVotacion",
          "type": "uint256"
        },
        {
          "internalType": "uint256",
          "name": "numVoto",
          "type": "uint256"
        }
      ],
      "name": "getVotosEmitido",
      "outputs": [
        {
          "internalType": "address",
          "name": "",
          "type": "address"
        },
        {
          "internalType": "uint256",
          "name": "",
          "type": "uint256"
        }
      ],
      "payable": false,
      "stateMutability": "view",
      "type": "function"
    },
    {
      "constant": false,
      "inputs": [
        {
          "internalType": "string",
          "name": "_titulo",
          "type": "string"
        }
      ],
      "name": "nuevaVotacion",
      "outputs": [],
      "payable": false,
      "stateMutability": "nonpayable",
      "type": "function"
    },
    {
      "constant": false,
      "inputs": [
        {
          "internalType": "uint256",
          "name": "numVotacion",
          "type": "uint256"
        },
        {
          "internalType": "string",
          "name": "candidato",
          "type": "string"
        }
      ],
      "name": "agregarCandidato",
      "outputs": [],
      "payable": false,
      "stateMutability": "nonpayable",
      "type": "function"
    },
    {
      "constant": false,
      "inputs": [
        {
          "internalType": "uint256",
          "name": "numVotacion",
          "type": "uint256"
        }
      ],
      "name": "estadoVotacionAbierto",
      "outputs": [],
      "payable": false,
      "stateMutability": "nonpayable",
      "type": "function"
    },
    {
      "constant": false,
      "inputs": [
        {
          "internalType": "uint256",
          "name": "numVotacion",
          "type": "uint256"
        }
      ],
      "name": "estadoVotacionCerrado",
      "outputs": [],
      "payable": false,
      "stateMutability": "nonpayable",
      "type": "function"
    },
    {
      "constant": false,
      "inputs": [
        {
          "internalType": "uint256",
          "name": "numVotacion",
          "type": "uint256"
        },
        {
          "internalType": "uint256",
          "name": "candidato",
          "type": "uint256"
        }
      ],
      "name": "votar",
      "outputs": [],
      "payable": false,
      "stateMutability": "nonpayable",
      "type": "function"
    }
  ],
  "bytecode": "0x6080604052600060015534801561001557600080fd5b50610ffe806100256000396000f3fe608060405234801561001057600080fd5b50600436106100b45760003560e01c8063a4579ed311610071578063a4579ed3146103bb578063b0e7e17d1461046d578063dec14eb3146104b3578063e353e385146104d0578063e741691c146104ed578063f661ed741461050a576100b4565b8063057eacf6146100b957806328fcd7ed146101685780634fa5a16f146101825780634faf2a91146101a55780635acf57b51461024b578063725f92a214610323575b600080fd5b610166600480360360408110156100cf57600080fd5b813591908101906040810160208201356401000000008111156100f157600080fd5b82018360208201111561010357600080fd5b8035906020019184600183028401116401000000008311171561012557600080fd5b91908080601f016020809104026020016040519081016040528093929190818152602001838380828437600092019190915250929550610512945050505050565b005b61017061082e565b60408051918252519081900360200190f35b6101666004803603604081101561019857600080fd5b5080359060200135610834565b610166600480360360208110156101bb57600080fd5b8101906020810181356401000000008111156101d657600080fd5b8201836020820111156101e857600080fd5b8035906020019184600183028401116401000000008311171561020a57600080fd5b91908080601f016020809104026020016040519081016040528093929190818152602001838380828437600092019190915250929550610989945050505050565b6102686004803603602081101561026157600080fd5b5035610a52565b6040518087815260200180602001866001600160a01b03166001600160a01b0316815260200185600281111561029a57fe5b60ff168152602001848152602001838152602001828103825287818151815260200191508051906020019080838360005b838110156102e35781810151838201526020016102cb565b50505050905090810190601f1680156103105780820380516001836020036101000a031916815260200191505b5097505050505050505060405180910390f35b6103466004803603604081101561033957600080fd5b5080359060200135610b1f565b6040805160208082528351818301528351919283929083019185019080838360005b83811015610380578181015183820152602001610368565b50505050905090810190601f1680156103ad5780820380516001836020036101000a031916815260200191505b509250505060405180910390f35b610166600480360360608110156103d157600080fd5b8135916020810135918101906060810160408201356401000000008111156103f857600080fd5b82018360208201111561040a57600080fd5b8035906020019184600183028401116401000000008311171561042c57600080fd5b91908080601f016020809104026020016040519081016040528093929190818152602001838380828437600092019190915250929550610bca945050505050565b6104906004803603604081101561048357600080fd5b5080359060200135610bfa565b604080516001600160a01b03909316835260208301919091528051918290030190f35b610166600480360360208110156104c957600080fd5b5035610c2d565b610346600480360360208110156104e657600080fd5b5035610d2d565b6101666004803603602081101561050357600080fd5b5035610dcf565b610170610ee2565b600082815260026020819052604090912001546001600160a01b03163314610581576040805162461bcd60e51b815260206004820152601760248201527f4572726f722c206e6f20657320656c2063726561646f72000000000000000000604482015290519081900360640190fd5b60008281526002602081905260408220810154600160a01b900460ff16908111156105a857fe5b146105fa576040805162461bcd60e51b815260206004820152601760248201527f4572726f722c20766f746163696f6e2061626965727461000000000000000000604482015290519081900360640190fd5b60008281526002602052604090206003015461065c576000828152600260209081526040808320600381015484526005018252909120825161063e92840190610ee9565b5060008281526002602052604090206003018054600101905561082a565b60005b6000838152600260205260409020600301548110156107e157816040516020018082805190602001908083835b602083106106ab5780518252601f19909201916020918201910161068c565b6001836020036101000a03801982511681845116808217855250505050505090500191505060405160208183030381529060405280519060200120600260008581526020019081526020016000206005016000838152602001908152602001600020604051602001808280546001816001161561010002031660029004801561076b5780601f1061074957610100808354040283529182019161076b565b820191906000526020600020905b815481529060010190602001808311610757575b50509150506040516020818303038152906040528051906020012014156107d9576040805162461bcd60e51b815260206004820152601c60248201527f4572726f722c2063616e64696461746f20656e20766f746163696f6e00000000604482015290519081900360640190fd5b60010161065f565b506000828152600260209081526040808320600381015484526005018252909120825161081092840190610ee9565b506000828152600260205260409020600301805460010190555b5050565b60015481565b60005b6000838152600260205260409020600401548110156108d25760008381526002602090815260408083208484526006019091529020546001600160a01b03163314156108ca576040805162461bcd60e51b815260206004820152601760248201527f456c20766f74616e746520796120686120766f7461646f000000000000000000604482015290519081900360640190fd5b600101610837565b5060016000838152600260208190526040909120810154600160a01b900460ff16908111156108fd57fe5b146109395760405162461bcd60e51b8152600401808060200182810382526024815260200180610fa66024913960400191505060405180910390fd5b600082815260026020818152604080842060048101805486526006909101835281852080546001600160a01b03191633179055805485529084206001908101959095559490925290528154019055565b6001805481018082556040805160c081018252828152602080820186815233838501526000606084018190526080840181905260a0840181905294855260028252929093208151815591518051919492936109e993850192910190610ee9565b506040820151600282810180546001600160a01b0319166001600160a01b03909316929092178083556060850151929160ff60a01b1990911690600160a01b908490811115610a3457fe5b02179055506080820151600382015560a09091015160049091015550565b60026020818152600092835260409283902080546001808301805487519281161561010002600019011695909504601f8101859004850282018501909652858152909491939092909190830182828015610aed5780601f10610ac257610100808354040283529160200191610aed565b820191906000526020600020905b815481529060010190602001808311610ad057829003601f168201915b505050506002830154600384015460049094015492936001600160a01b03821693600160a01b90920460ff1692509086565b6000828152600260208181526040808420858552600501825292839020805484516001821615610100026000190190911693909304601f81018390048302840183019094528383526060939091830182828015610bbd5780601f10610b9257610100808354040283529160200191610bbd565b820191906000526020600020905b815481529060010190602001808311610ba057829003601f168201915b5050505050905092915050565b600083815260026020908152604080832085845260050182529091208251610bf492840190610ee9565b50505050565b600091825260026020908152604080842092845260069092019052902080546001909101546001600160a01b0390911691565b600081815260026020819052604090912001546001600160a01b03163314610c9c576040805162461bcd60e51b815260206004820152601a60248201527f4572726f722c2066756e63696f6e2064656c2063726561646f72000000000000604482015290519081900360640190fd5b60008181526002602081905260408220810154600160a01b900460ff1690811115610cc357fe5b14610cff5760405162461bcd60e51b8152600401808060200182810382526024815260200180610f826024913960400191505060405180910390fd5b60008181526002602081905260409091200180546001919060ff60a01b1916600160a01b835b021790555050565b6000818152600260208181526040928390206001908101805485519281161561010002600019011693909304601f8101839004830282018301909452838152606093909291830182828015610dc35780601f10610d9857610100808354040283529160200191610dc3565b820191906000526020600020905b815481529060010190602001808311610da657829003601f168201915b50505050509050919050565b600081815260026020819052604090912001546001600160a01b03163314610e3e576040805162461bcd60e51b815260206004820152601a60248201527f4572726f722c2066756e63696f6e2064656c2063726561646f72000000000000604482015290519081900360640190fd5b60026000828152600260208190526040909120810154600160a01b900460ff1690811115610e6857fe5b1415610ebb576040805162461bcd60e51b815260206004820152601960248201527f4572726f722c2066756e63696f6e20656e2065646963696f6e00000000000000604482015290519081900360640190fd5b60008181526002602081905260409091208101805460ff60a01b1916600160a01b83610d25565b6001545b90565b828054600181600116156101000203166002900490600052602060002090601f016020900481019282601f10610f2a57805160ff1916838001178555610f57565b82800160010185558215610f57579182015b82811115610f57578251825591602001919060010190610f3c565b50610f63929150610f67565b5090565b610ee691905b80821115610f635760008155600101610f6d56fe4572726f722c20766f746163696f6e2079612061626965727461206f20636572726164614572726f722c20766f746163696f6e20656e2065646963696f6e206f2063657272616461a265627a7a72315820c5a21b999327cd8b1ca4f2399bffb5acb5a8f5c009c6a0c03d8d751669b654c764736f6c63430005100032",
  "source": "pragma solidity >0.5.0;\r\n\r\ncontract ListaVotaciones{\r\n    enum Estado {Editando, Abierto, Cerrado} Estado estado;\r\n    Estado constant estadoBase = Estado.Editando;\r\n    uint public numVotaciones = 0;\r\n\r\n    struct Votacion{\r\n        uint id_votacion;\r\n        string titulo;\r\n        address id_creador;\r\n        Estado estado;\r\n        uint numCandidatos;\r\n        uint numVotantes;\r\n        mapping (uint => string) candidatos;\r\n        mapping (uint => VotoEmitido) votosEmitidos;\r\n    }\r\n    struct VotoEmitido{\r\n        address id_votante;\r\n        uint elegido;\r\n    }\r\n\r\n    mapping (uint => Votacion) public votaciones;\r\n\r\n    constructor() public {\r\n        //nuevaVotacion(\"Votación a delegado de centro\");\r\n\r\n    }\r\n    function getNumVotaciones() public view returns(uint){\r\n        return numVotaciones;\r\n    }\r\n    function getVotacion(uint numVotacion) public view returns(string memory){\r\n        return votaciones[numVotacion].titulo;\r\n    }\r\n\r\n    function getCandidato(uint numVotacion, uint numCandidato) public view returns(string memory){\r\n        return votaciones[numVotacion].candidatos[numCandidato];\r\n    }\r\n    function setCandidato(uint numVotacion, uint numCandidato, string memory nuevoNombre) public{\r\n        votaciones[numVotacion].candidatos[numCandidato] = nuevoNombre;\r\n    }\r\n    function getVotosEmitido(uint numVotacion, uint numVoto) public view returns(address, uint){\r\n        return (votaciones[numVotacion].votosEmitidos[numVoto].id_votante, votaciones[numVotacion].votosEmitidos[numVoto].elegido);\r\n    }\r\n    function nuevaVotacion(string memory _titulo) public{\r\n        //Crear una nueva votación y añadirla a la lista de votaciones\r\n        //Emitir la nueva votación\r\n        numVotaciones ++;\r\n        votaciones[numVotaciones] = Votacion(numVotaciones, _titulo, msg.sender, estadoBase, 0, 0);\r\n    }\r\n    function agregarCandidato(uint numVotacion, string memory candidato) public {\r\n        //Si es el creador de la votación\r\n        require(\r\n            msg.sender == votaciones[numVotacion].id_creador, \"Error, no es el creador\"\r\n        );\r\n        //Si la votación se encuentra en el estado de ediccion.\r\n        require(\r\n            votaciones[numVotacion].estado == Estado.Editando, \"Error, votacion abierta\"\r\n        );\r\n\r\n        // Si no hay ningún candidato en la votación se añade\r\n        if(votaciones[numVotacion].numCandidatos==0){\r\n            votaciones[numVotacion].candidatos[votaciones[numVotacion].numCandidatos] = candidato;\r\n            votaciones[numVotacion].numCandidatos ++;\r\n        }\r\n        // Si hay alguno se comprueba que el nuevo no exista ya.\r\n        else{\r\n            for (uint i = 0; i < votaciones[numVotacion].numCandidatos; i++){\r\n                // Comparación de string en soldity @-@\r\n                if(keccak256(abi.encodePacked(votaciones[numVotacion].candidatos[i]))==keccak256(abi.encodePacked(candidato))){\r\n                    revert(\"Error, candidato en votacion\");\r\n                }\r\n            }        \r\n            //Si no existe el nuevo candidato en la votacion\r\n            //Añade el candidato a la votacion.\r\n            votaciones[numVotacion].candidatos[votaciones[numVotacion].numCandidatos] = candidato;\r\n            votaciones[numVotacion].numCandidatos ++;\r\n        }\r\n\r\n    }\r\n    function estadoVotacionAbierto(uint numVotacion) public{\r\n        //Si es el creador de la votación\r\n        require(\r\n            msg.sender == votaciones[numVotacion].id_creador,\r\n            \"Error, funcion del creador\"\r\n        );\r\n        //Si el estado de la votación es Editando\r\n        require(\r\n            votaciones[numVotacion].estado == Estado.Editando,\r\n            \"Error, votacion ya abierta o cerrada\"\r\n        );\r\n        //Tomar la votación seleccionada y cambiar el estado a Abierto\r\n        votaciones[numVotacion].estado = Estado.Abierto;\r\n    }\r\n    function estadoVotacionCerrado(uint numVotacion) public{\r\n        //Si es el creador de la votación\r\n        require(\r\n            msg.sender == votaciones[numVotacion].id_creador,\r\n            \"Error, funcion del creador\"\r\n        );\r\n        //Si el estado de la votacion es Editando o Abierto\r\n        require(\r\n            votaciones[numVotacion].estado != Estado.Cerrado,\r\n            \"Error, funcion en edicion\"\r\n        ); \r\n        //Tomar la votación seleccionada y cambiar el estado a Cerrado\r\n        votaciones[numVotacion].estado = Estado.Cerrado;\r\n    }\r\n    function votar(uint numVotacion, uint candidato) public {\r\n        //Tomar la votación seleccionada\r\n        //Si el estado de la votación es Votando\r\n        for (uint i = 0; i < votaciones[numVotacion].numVotantes; i++){\r\n            if(votaciones[numVotacion].votosEmitidos[i].id_votante == msg.sender){\r\n                    revert(\"El votante ya ha votado\");\r\n            }\r\n        }    \r\n        require(\r\n            votaciones[numVotacion].estado == Estado.Abierto,\r\n            \"Error, votacion en edicion o cerrada\"\r\n        ); \r\n        //Cambia la variable eleccion.\r\n        votaciones[numVotacion].votosEmitidos[votaciones[numVotacion].numVotantes].id_votante = msg.sender;\r\n        votaciones[numVotacion].votosEmitidos[votaciones[numVotacion].numVotantes].elegido = candidato;\r\n        votaciones[numVotacion].numVotantes ++;\r\n    }\r\n\r\n}\r\n",
  "sourcePath": "C:/Users/ferna/Desktop/DemocrApp/contracts/ListaVotaciones.sol",
  "compiler": {
    "name": "solc",
    "version": "0.5.16+commit.9c3226ce.Emscripten.clang"
  },
  "schemaVersion": "3.3.3",
  "updatedAt": "2021-02-07T09:57:30.612Z",
  "networkType": "ethereum",
  "devdoc": {
    "methods": {}
  },
  "userdoc": {
    "methods": {}
  }
}