{
  "contractName": "ListaVotaciones",
  "abi": [
    {
      "constant": false,
      "inputs": [],
      "name": "nuevaVotacion",
      "outputs": [],
      "payable": false,
      "stateMutability": "nonpayable",
      "type": "function"
    },
    {
      "constant": false,
      "inputs": [],
      "name": "accederVotacion",
      "outputs": [],
      "payable": false,
      "stateMutability": "nonpayable",
      "type": "function"
    },
    {
      "constant": false,
      "inputs": [],
      "name": "estadoVotacionVotando",
      "outputs": [],
      "payable": false,
      "stateMutability": "nonpayable",
      "type": "function"
    },
    {
      "constant": false,
      "inputs": [],
      "name": "estadoVotacionCerrado",
      "outputs": [],
      "payable": false,
      "stateMutability": "nonpayable",
      "type": "function"
    },
    {
      "constant": false,
      "inputs": [],
      "name": "votar",
      "outputs": [],
      "payable": false,
      "stateMutability": "nonpayable",
      "type": "function"
    }
  ],
  "bytecode": "0x6080604052348015600f57600080fd5b5060948061001e6000396000f3fe6080604052348015600f57600080fd5b506004361060505760003560e01c8063452274af14605557806377818a23146055578063cc52e3d8146055578063ee972169146055578063fbe87304146055575b600080fd5b605b605d565b005b56fea265627a7a7231582048e90ba086f1666b9a49fb01b95cef5ab7fac35f1fcdd6ad195bb5a360a7c79064736f6c63430005100032",
  "source": "pragma solidity ^0.5.0;\r\n\r\ncontract ListaVotaciones{\r\n    enum Estado {Abierto, Votando, Cerrado} Estado estado;\r\n    Estado constant estadoPorDefecto = Estado.Abierto;\r\n\r\n    struct Votante {\r\n        uint id_votante;\r\n        string candidato_elegido;\r\n        bool ha_votado;\r\n    }\r\n\r\n    struct Votacion {\r\n        uint id_votacion;\r\n        uint id_creador;\r\n        Estado estado;\r\n        mapping (uint => string) candidatos;\r\n        mapping (uint => Votante) votantes;\r\n    }\r\n\r\n    uint numVotaciones;\r\n    mapping (uint => Votacion) votaciones;\r\n\r\n    function nuevaVotacion() public{\r\n        //Crear una nueva votación y añadirla a la lista de votaciones\r\n        //Emitir la nueva votación\r\n    }\r\n\r\n    function accederVotacion() public{\r\n        //Crear un nuevo votante\r\n        //Si el estado de la votación es Abierto\r\n        //Añadir votante a la lista de votantes de la votación.\r\n    }\r\n\r\n    function estadoVotacionVotando() public{\r\n        //Tomar la votación seleccionada\r\n        //Si el estado de la votación es Abierto\r\n        //Votacion.estado = Estado.Votando;\r\n    }\r\n    function estadoVotacionCerrado() public{\r\n        //Tomar la votación seleccionada\r\n        //Si el estado de la votacion es Votando\r\n        //Votacion.estado = Estado.Cerrado;\r\n    }\r\n\r\n    function votar() public {\r\n        //Tomar la votación seleccionada\r\n        //Si el estado de la votación es Votando\r\n        //Si el votante está en la votación\r\n        //Cambia el estado de ha_votado a true\r\n        //Cambia la variable eleccion.\r\n    }\r\n\r\n}\r\n",
  "sourcePath": "C:/Users/ferna/Desktop/DemocrApp/contracts/ListaVotaciones.sol",
  "compiler": {
    "name": "solc",
    "version": "0.5.16+commit.9c3226ce.Emscripten.clang"
  },
  "schemaVersion": "3.3.3",
  "updatedAt": "2020-12-29T12:49:49.831Z",
  "devdoc": {
    "methods": {}
  },
  "userdoc": {
    "methods": {}
  }
}