{
  "contractName": "ListaVotaciones",
  "abi": [
    {
      "inputs": [],
      "payable": false,
      "stateMutability": "nonpayable",
      "type": "constructor"
    },
    {
      "constant": true,
      "inputs": [],
      "name": "numVotaciones",
      "outputs": [
        {
          "internalType": "uint256",
          "name": "",
          "type": "uint256"
        }
      ],
      "payable": false,
      "stateMutability": "view",
      "type": "function"
    },
    {
      "constant": true,
      "inputs": [
        {
          "internalType": "uint256",
          "name": "",
          "type": "uint256"
        }
      ],
      "name": "votaciones",
      "outputs": [
        {
          "internalType": "uint256",
          "name": "id_votacion",
          "type": "uint256"
        },
        {
          "internalType": "string",
          "name": "titulo",
          "type": "string"
        },
        {
          "internalType": "address",
          "name": "id_creador",
          "type": "address"
        },
        {
          "internalType": "enum ListaVotaciones.Estado",
          "name": "estado",
          "type": "uint8"
        }
      ],
      "payable": false,
      "stateMutability": "view",
      "type": "function"
    },
    {
      "constant": false,
      "inputs": [
        {
          "internalType": "string",
          "name": "_titulo",
          "type": "string"
        }
      ],
      "name": "nuevaVotacion",
      "outputs": [],
      "payable": false,
      "stateMutability": "nonpayable",
      "type": "function"
    },
    {
      "constant": false,
      "inputs": [
        {
          "internalType": "uint256",
          "name": "numVotacion",
          "type": "uint256"
        },
        {
          "internalType": "string",
          "name": "candidato",
          "type": "string"
        }
      ],
      "name": "agregarCandidato",
      "outputs": [],
      "payable": false,
      "stateMutability": "nonpayable",
      "type": "function"
    },
    {
      "constant": false,
      "inputs": [],
      "name": "accederVotacion",
      "outputs": [],
      "payable": false,
      "stateMutability": "nonpayable",
      "type": "function"
    },
    {
      "constant": false,
      "inputs": [],
      "name": "estadoVotacionAbierto",
      "outputs": [],
      "payable": false,
      "stateMutability": "nonpayable",
      "type": "function"
    },
    {
      "constant": false,
      "inputs": [],
      "name": "estadoVotacionCerrado",
      "outputs": [],
      "payable": false,
      "stateMutability": "nonpayable",
      "type": "function"
    },
    {
      "constant": false,
      "inputs": [],
      "name": "votar",
      "outputs": [],
      "payable": false,
      "stateMutability": "nonpayable",
      "type": "function"
    }
  ],
  "bytecode": "0x608060405260006001553480156200001657600080fd5b5060408051808201909152601e81527f566f74616369c3b36e20612064656c656761646f2064652063656e74726f000060208201526200005f906001600160e01b036200006516565b620002b0565b6001805481018082556040805160a0810182528281526020808201868152338385015260006060808501829052608085018190529581526002835293909320825181559251805194959294620000c393850192919091019062000138565b506040820151600282810180546001600160a01b0319166001600160a01b03909316929092178083556060850151929160ff60a01b1990911690600160a01b9084908111156200010f57fe5b02179055506080820151805162000131916003840191602090910190620001bd565b5050505050565b828054600181600116156101000203166002900490600052602060002090601f016020900481019282601f106200017b57805160ff1916838001178555620001ab565b82800160010185558215620001ab579182015b82811115620001ab5782518255916020019190600101906200018e565b50620001b99291506200021d565b5090565b8280548282559060005260206000209081019282156200020f579160200282015b828111156200020f5782518051620001fe91849160209091019062000138565b5091602001919060010190620001de565b50620001b99291506200023d565b6200023a91905b80821115620001b9576000815560010162000224565b90565b6200023a91905b80821115620001b95760006200025b828262000265565b5060010162000244565b50805460018160011615610100020316600290046000825580601f106200028d5750620002ad565b601f016020900490600052602060002090810190620002ad91906200021d565b50565b6108bc80620002c06000396000f3fe608060405234801561001057600080fd5b50600436106100885760003560e01c80634faf2a911161005b5780634faf2a911461015e5780635acf57b514610204578063cc52e3d814610156578063ee9721691461015657610088565b8063057eacf61461008d57806328fcd7ed1461013c5780632c8d0ef814610156578063452274af14610156575b600080fd5b61013a600480360360408110156100a357600080fd5b813591908101906040810160208201356401000000008111156100c557600080fd5b8201836020820111156100d757600080fd5b803590602001918460018302840111640100000000831117156100f957600080fd5b91908080601f0160208091040260200160405190810160405280939291908181526020018383808284376000920191909152509295506102ce945050505050565b005b61014461052d565b60408051918252519081900360200190f35b61013a610533565b61013a6004803603602081101561017457600080fd5b81019060208101813564010000000081111561018f57600080fd5b8201836020820111156101a157600080fd5b803590602001918460018302840111640100000000831117156101c357600080fd5b91908080601f016020809104026020016040519081016040528093929190818152602001838380828437600092019190915250929550610535945050505050565b6102216004803603602081101561021a57600080fd5b5035610603565b6040518085815260200180602001846001600160a01b03166001600160a01b0316815260200183600281111561025357fe5b60ff168152602001828103825285818151815260200191508051906020019080838360005b83811015610290578181015183820152602001610278565b50505050905090810190601f1680156102bd5780820380516001836020036101000a031916815260200191505b509550505050505060405180910390f35b600082815260026020819052604090912001546001600160a01b031633146103275760405162461bcd60e51b815260040180806020018281038252603c81526020018061084c603c913960400191505060405180910390fd5b60008281526002602052604090206003015461037b5760008281526002602090815260408220600301805460018101808355918452928290208451919361037493910191908501906106c4565b5050610529565b60005b6000838152600260205260409020600301548110156104ee57816040516020018082805190602001908083835b602083106103ca5780518252601f1990920191602091820191016103ab565b6001836020036101000a0380198251168184511680821785525050505050509050019150506040516020818303038152906040528051906020012060026000858152602001908152602001600020600301828154811061042657fe5b90600052602060002001604051602001808280546001816001161561010002031660029004801561048e5780601f1061046c57610100808354040283529182019161048e565b820191906000526020600020905b81548152906001019060200180831161047a575b50509150506040516020818303038152906040528051906020012014156104e65760405162461bcd60e51b81526004018080602001828103825260298152602001806108236029913960400191505060405180910390fd5b60010161037e565b5060008281526002602090815260408220600301805460018101808355918452928290208451919361052693910191908501906106c4565b50505b5050565b60015481565b565b6001805481018082556040805160a08101825282815260208082018681523383850152600060608085018290526080850181905295815260028352939093208251815592518051949592946105919385019291909101906106c4565b506040820151600282810180546001600160a01b0319166001600160a01b03909316929092178083556060850151929160ff60a01b1990911690600160a01b9084908111156105dc57fe5b0217905550608082015180516105fc916003840191602090910190610742565b5050505050565b60026020818152600092835260409283902080546001808301805487519281161561010002600019011695909504601f810185900485028201850190965285815290949193909290919083018282801561069e5780601f106106735761010080835404028352916020019161069e565b820191906000526020600020905b81548152906001019060200180831161068157829003601f168201915b505050600290930154919250506001600160a01b0381169060ff600160a01b9091041684565b828054600181600116156101000203166002900490600052602060002090601f016020900481019282601f1061070557805160ff1916838001178555610732565b82800160010185558215610732579182015b82811115610732578251825591602001919060010190610717565b5061073e92915061079b565b5090565b82805482825590600052602060002090810192821561078f579160200282015b8281111561078f578251805161077f9184916020909101906106c4565b5091602001919060010190610762565b5061073e9291506107b8565b6107b591905b8082111561073e57600081556001016107a1565b90565b6107b591905b8082111561073e5760006107d282826107db565b506001016107be565b50805460018160011615610100020316600290046000825580601f10610801575061081f565b601f01602090049060005260206000209081019061081f919061079b565b5056fe456c2063616e64696461746f20736520656e6375656e74726120656e206c6120766f74616369c3b36e536f6c6f20656c2063726561646f72206465206c6120766f74616369c3b36e207075656465206c6c616d6172206120657374612066756e6369c3b36ea265627a7a7231582026384a775325268589f7fd1e82013f56fe32ada344afe56d81703087ab90822964736f6c63430005100032",
  "source": "pragma solidity ^0.5.0;\r\n\r\ncontract ListaVotaciones{\r\n    enum Estado {Editando, Abierto, Cerrado} Estado estado;\r\n    Estado constant estadoBase = Estado.Editando;\r\n    uint public numVotaciones = 0;\r\n\r\n    struct Votante {\r\n        string nombre;\r\n        string candidato_elegido;\r\n        bool ha_votado;\r\n    }\r\n\r\n    struct Votacion {\r\n        uint id_votacion;\r\n        string titulo;\r\n        address id_creador;\r\n        Estado estado;\r\n        string[] candidatos;\r\n        mapping(string => Votante) votantes;\r\n    }\r\n\r\n    mapping (uint => Votacion) public votaciones;\r\n\r\n    constructor() public {\r\n        nuevaVotacion(\"Votación a delegado de centro\");\r\n\r\n    }\r\n\r\n\r\n\r\n    function nuevaVotacion(string memory _titulo) public{\r\n        //Crear una nueva votación y añadirla a la lista de votaciones\r\n        //Emitir la nueva votación\r\n        string[] memory _candidatos;\r\n        numVotaciones ++;\r\n        votaciones[numVotaciones] = Votacion(numVotaciones, _titulo, msg.sender, estadoBase, _candidatos);\r\n    }\r\n\r\n    function agregarCandidato(uint numVotacion, string memory candidato) public {\r\n        //Si es el creador de la votación\r\n        require(\r\n            msg.sender == votaciones[numVotacion].id_creador,\r\n            \"Solo el creador de la votación puede llamar a esta función\"\r\n        );\r\n        // Si no hay ningún candidato en la votación se añade\r\n        if(votaciones[numVotacion].candidatos.length==0){\r\n            votaciones[numVotacion].candidatos.push(candidato);\r\n        }\r\n        // Si hay alguno se comprueba que el nuevo no exista ya.\r\n        else{\r\n            for (uint i = 0; i < votaciones[numVotacion].candidatos.length; i++){\r\n                // Comparación de string en soldity @-@\r\n                if(keccak256(abi.encodePacked(votaciones[numVotacion].candidatos[i]))==keccak256(abi.encodePacked(candidato))){\r\n                    revert(\"El candidato se encuentra en la votación\");\r\n                }\r\n            }        \r\n            //Si no existe el nuevo candidato en la votacion\r\n            //Añade el candidato a la votacion.\r\n            votaciones[numVotacion].candidatos.push(candidato);\r\n        }\r\n\r\n    }\r\n\r\n    function accederVotacion() public{\r\n        //Crear un nuevo votante\r\n        //Si el estado de la votación es Abierto\r\n        //Añadir votante a la lista de votantes de la votación.\r\n    }\r\n\r\n    function estadoVotacionAbierto() public{\r\n        //Si es el creador de la votación\r\n        //Tomar la votación seleccionada\r\n        //Si el estado de la votación es Editando\r\n        //Votacion.estado = Estado.Abierta;\r\n    }\r\n    function estadoVotacionCerrado() public{\r\n        //Si es el creador de la votación\r\n        //Tomar la votación seleccionada\r\n        //Si el estado de la votacion es Abierto\r\n        //Votacion.estado = Estado.Cerrado;\r\n    }\r\n\r\n    function votar() public {\r\n        //Tomar la votación seleccionada\r\n        //Si el estado de la votación es Votando\r\n        //Si el votante está en la votación\r\n        //Cambia el estado de ha_votado a true\r\n        //Cambia la variable eleccion.\r\n    }\r\n\r\n}\r\n",
  "sourcePath": "C:/Users/ferna/Desktop/DemocrApp/contracts/ListaVotaciones.sol",
  "compiler": {
    "name": "solc",
    "version": "0.5.16+commit.9c3226ce.Emscripten.clang"
  },
  "schemaVersion": "3.3.3",
  "updatedAt": "2021-01-03T18:12:31.211Z",
  "networkType": "ethereum",
  "devdoc": {
    "methods": {}
  },
  "userdoc": {
    "methods": {}
  }
}