{
  "contractName": "ListaVotaciones",
  "abi": [
    {
      "inputs": [],
      "payable": false,
      "stateMutability": "nonpayable",
      "type": "constructor"
    },
    {
      "constant": true,
      "inputs": [],
      "name": "numVotaciones",
      "outputs": [
        {
          "internalType": "uint256",
          "name": "",
          "type": "uint256"
        }
      ],
      "payable": false,
      "stateMutability": "view",
      "type": "function"
    },
    {
      "constant": true,
      "inputs": [
        {
          "internalType": "uint256",
          "name": "",
          "type": "uint256"
        }
      ],
      "name": "votaciones",
      "outputs": [
        {
          "internalType": "uint256",
          "name": "id_votacion",
          "type": "uint256"
        },
        {
          "internalType": "string",
          "name": "titulo",
          "type": "string"
        },
        {
          "internalType": "address",
          "name": "id_creador",
          "type": "address"
        },
        {
          "internalType": "enum ListaVotaciones.Estado",
          "name": "estado",
          "type": "uint8"
        },
        {
          "internalType": "uint256",
          "name": "numCandidatos",
          "type": "uint256"
        },
        {
          "internalType": "uint256",
          "name": "numVotantes",
          "type": "uint256"
        }
      ],
      "payable": false,
      "stateMutability": "view",
      "type": "function"
    },
    {
      "constant": true,
      "inputs": [],
      "name": "sayHello",
      "outputs": [
        {
          "internalType": "string",
          "name": "",
          "type": "string"
        }
      ],
      "payable": false,
      "stateMutability": "pure",
      "type": "function"
    },
    {
      "constant": true,
      "inputs": [],
      "name": "getNumVotaciones",
      "outputs": [
        {
          "internalType": "uint256",
          "name": "",
          "type": "uint256"
        }
      ],
      "payable": false,
      "stateMutability": "view",
      "type": "function"
    },
    {
      "constant": true,
      "inputs": [
        {
          "internalType": "uint256",
          "name": "numVotacion",
          "type": "uint256"
        }
      ],
      "name": "getVotacion",
      "outputs": [
        {
          "internalType": "string",
          "name": "",
          "type": "string"
        }
      ],
      "payable": false,
      "stateMutability": "view",
      "type": "function"
    },
    {
      "constant": true,
      "inputs": [
        {
          "internalType": "uint256",
          "name": "numVotacion",
          "type": "uint256"
        }
      ],
      "name": "getNumVotantesVotacion",
      "outputs": [
        {
          "internalType": "uint256",
          "name": "",
          "type": "uint256"
        }
      ],
      "payable": false,
      "stateMutability": "view",
      "type": "function"
    },
    {
      "constant": true,
      "inputs": [
        {
          "internalType": "uint256",
          "name": "numVotacion",
          "type": "uint256"
        }
      ],
      "name": "getEstadoEncuesta",
      "outputs": [
        {
          "internalType": "string",
          "name": "",
          "type": "string"
        }
      ],
      "payable": false,
      "stateMutability": "view",
      "type": "function"
    },
    {
      "constant": true,
      "inputs": [
        {
          "internalType": "uint256",
          "name": "numVotacion",
          "type": "uint256"
        }
      ],
      "name": "getNumCandidatos",
      "outputs": [
        {
          "internalType": "uint256",
          "name": "",
          "type": "uint256"
        }
      ],
      "payable": false,
      "stateMutability": "view",
      "type": "function"
    },
    {
      "constant": true,
      "inputs": [
        {
          "internalType": "uint256",
          "name": "numVotacion",
          "type": "uint256"
        },
        {
          "internalType": "uint256",
          "name": "numCandidato",
          "type": "uint256"
        }
      ],
      "name": "getCandidato",
      "outputs": [
        {
          "internalType": "string",
          "name": "",
          "type": "string"
        }
      ],
      "payable": false,
      "stateMutability": "view",
      "type": "function"
    },
    {
      "constant": false,
      "inputs": [
        {
          "internalType": "uint256",
          "name": "numVotacion",
          "type": "uint256"
        },
        {
          "internalType": "uint256",
          "name": "numCandidato",
          "type": "uint256"
        },
        {
          "internalType": "string",
          "name": "nuevoNombre",
          "type": "string"
        }
      ],
      "name": "setCandidato",
      "outputs": [],
      "payable": false,
      "stateMutability": "nonpayable",
      "type": "function"
    },
    {
      "constant": true,
      "inputs": [
        {
          "internalType": "uint256",
          "name": "numVotacion",
          "type": "uint256"
        },
        {
          "internalType": "uint256",
          "name": "numVoto",
          "type": "uint256"
        }
      ],
      "name": "getVotoEmitido",
      "outputs": [
        {
          "internalType": "uint256",
          "name": "",
          "type": "uint256"
        }
      ],
      "payable": false,
      "stateMutability": "view",
      "type": "function"
    },
    {
      "constant": false,
      "inputs": [
        {
          "internalType": "string",
          "name": "_titulo",
          "type": "string"
        }
      ],
      "name": "nuevaVotacion",
      "outputs": [
        {
          "internalType": "uint256",
          "name": "",
          "type": "uint256"
        }
      ],
      "payable": false,
      "stateMutability": "nonpayable",
      "type": "function"
    },
    {
      "constant": false,
      "inputs": [
        {
          "internalType": "uint256",
          "name": "numVotacion",
          "type": "uint256"
        },
        {
          "internalType": "string",
          "name": "candidato",
          "type": "string"
        }
      ],
      "name": "agregarCandidato",
      "outputs": [
        {
          "internalType": "string",
          "name": "",
          "type": "string"
        }
      ],
      "payable": false,
      "stateMutability": "nonpayable",
      "type": "function"
    },
    {
      "constant": false,
      "inputs": [
        {
          "internalType": "uint256",
          "name": "numVotacion",
          "type": "uint256"
        }
      ],
      "name": "estadoVotacionAbierto",
      "outputs": [
        {
          "internalType": "string",
          "name": "",
          "type": "string"
        }
      ],
      "payable": false,
      "stateMutability": "nonpayable",
      "type": "function"
    },
    {
      "constant": false,
      "inputs": [
        {
          "internalType": "uint256",
          "name": "numVotacion",
          "type": "uint256"
        }
      ],
      "name": "estadoVotacionCerrado",
      "outputs": [
        {
          "internalType": "string",
          "name": "",
          "type": "string"
        }
      ],
      "payable": false,
      "stateMutability": "nonpayable",
      "type": "function"
    },
    {
      "constant": false,
      "inputs": [
        {
          "internalType": "uint256",
          "name": "numVotacion",
          "type": "uint256"
        },
        {
          "internalType": "uint256",
          "name": "candidato",
          "type": "uint256"
        }
      ],
      "name": "votar",
      "outputs": [
        {
          "internalType": "string",
          "name": "",
          "type": "string"
        }
      ],
      "payable": false,
      "stateMutability": "nonpayable",
      "type": "function"
    }
  ],
  "bytecode": "0x6080604052600060015534801561001557600080fd5b50611203806100256000396000f3fe608060405234801561001057600080fd5b50600436106101005760003560e01c8063725f92a211610097578063e741691c11610066578063e741691c14610550578063eaadfb211461056d578063ef5fb05b1461058a578063f661ed741461059257610100565b8063725f92a21461043f578063a4579ed314610462578063dec14eb314610516578063e353e3851461053357610100565b80634faf2a91116100d35780634faf2a911461028757806353b7c5761461032d5780635acf57b51461034a5780636d9fa5f61461042257610100565b8063057eacf61461010557806328fcd7ed14610227578063461b60d3146102415780634fa5a16f14610264575b600080fd5b6101b26004803603604081101561011b57600080fd5b8135919081019060408101602082013564010000000081111561013d57600080fd5b82018360208201111561014f57600080fd5b8035906020019184600183028401116401000000008311171561017157600080fd5b91908080601f01602080910402602001604051908101604052809392919081815260200183838082843760009201919091525092955061059a945050505050565b6040805160208082528351818301528351919283929083019185019080838360005b838110156101ec5781810151838201526020016101d4565b50505050905090810190601f1680156102195780820380516001836020036101000a031916815260200191505b509250505060405180910390f35b61022f610852565b60408051918252519081900360200190f35b61022f6004803603604081101561025757600080fd5b5080359060200135610858565b6101b26004803603604081101561027a57600080fd5b508035906020013561087c565b61022f6004803603602081101561029d57600080fd5b8101906020810181356401000000008111156102b857600080fd5b8201836020820111156102ca57600080fd5b803590602001918460018302840111640100000000831117156102ec57600080fd5b91908080601f0160208091040260200160405190810160405280939291908181526020018383808284376000920191909152509295506109e1945050505050565b6101b26004803603602081101561034357600080fd5b5035610ab2565b6103676004803603602081101561036057600080fd5b5035610bb0565b6040518087815260200180602001866001600160a01b03166001600160a01b0316815260200185600281111561039957fe5b60ff168152602001848152602001838152602001828103825287818151815260200191508051906020019080838360005b838110156103e25781810151838201526020016103ca565b50505050905090810190601f16801561040f5780820380516001836020036101000a031916815260200191505b5097505050505050505060405180910390f35b61022f6004803603602081101561043857600080fd5b5035610c7d565b6101b26004803603604081101561045557600080fd5b5080359060200135610c92565b6105146004803603606081101561047857600080fd5b81359160208101359181019060608101604082013564010000000081111561049f57600080fd5b8201836020820111156104b157600080fd5b803590602001918460018302840111640100000000831117156104d357600080fd5b91908080601f016020809104026020016040519081016040528093929190818152602001838380828437600092019190915250929550610d3d945050505050565b005b6101b26004803603602081101561052c57600080fd5b5035610d6d565b6101b26004803603602081101561054957600080fd5b5035610e4c565b6101b26004803603602081101561056657600080fd5b5035610eee565b61022f6004803603602081101561058357600080fd5b5035611038565b6101b261104d565b61022f611074565b600082815260026020819052604090912001546060906001600160a01b031633146105df5760405180606001604052806026815260200161116660269139905061084c565b60008381526002602081905260408220810154600160a01b900460ff169081111561060657fe5b14610645575060408051808201909152601781527f4572726f722c20766f746163696f6e2061626965727461000000000000000000602082015261084c565b6000838152600260205260409020600301546106a757600083815260026020908152604080832060038101548452600501825290912083516106899285019061107a565b50600083815260026020526040902060030180546001019055610849565b60005b60008481526002602052604090206003015481101561080057826040516020018082805190602001908083835b602083106106f65780518252601f1990920191602091820191016106d7565b6001836020036101000a0380198251168184511680821785525050505050509050019150506040516020818303038152906040528051906020012060026000868152602001908152602001600020600501600083815260200190815260200160002060405160200180828054600181600116156101000203166002900480156107b65780601f106107945761010080835404028352918201916107b6565b820191906000526020600020905b8154815290600101906020018083116107a2575b50509150506040516020818303038152906040528051906020012014156107f8576040518060600160405280602f8152602001611137602f913991505061084c565b6001016106aa565b506000838152600260209081526040808320600381015484526005018252909120835161082f9285019061107a565b506000838152600260205260409020600301805460010190555b50805b92915050565b60015481565b60009182526002602090815260408084209284526006909201905290206001015490565b606060005b60008481526002602052604090206004015481101561090a5760008481526002602090815260408083208484526006019091529020546001600160a01b031633141561090257505060408051808201909152601e81527f4572726f722c20656c20766f74616e746520796120686120766f7461646f0000602082015261084c565b600101610881565b5060016000848152600260208190526040909120810154600160a01b900460ff169081111561093557fe5b1461095a5760405180606001604052806024815260200161111360249139905061084c565b50600082815260026020818152604080842060048101805486526006909101835281852080546001600160a01b03191633179055805485528185206001908101969096559590935290815283549092019092558151808301909252601c82527f566f746f207265616c697a61646f20636f7272656374616d656e7465000000009082015290565b6001805481018082556040805160c081018252828152602080820186815233838501526000606084018190526080840181905260a0840181905294855260028252928420825181559251805194959294610a4293850192919091019061107a565b506040820151600282810180546001600160a01b0319166001600160a01b03909316929092178083556060850151929160ff60a01b1990911690600160a01b908490811115610a8d57fe5b02179055506080820151600382015560a090910151600490910155506001545b919050565b6060600080838152600260208190526040909120810154600160a01b900460ff1690811115610add57fe5b1415610b08575060408051808201909152600881526745646974616e646f60c01b6020820152610aad565b60016000838152600260208190526040909120810154600160a01b900460ff1690811115610b3257fe5b1415610b5c57506040805180820190915260078152664162696572746f60c81b6020820152610aad565b60026000838152600260208190526040909120810154600160a01b900460ff1690811115610b8657fe5b1415610aad57506040805180820190915260078152664365727261646f60c81b6020820152610aad565b60026020818152600092835260409283902080546001808301805487519281161561010002600019011695909504601f8101859004850282018501909652858152909491939092909190830182828015610c4b5780601f10610c2057610100808354040283529160200191610c4b565b820191906000526020600020905b815481529060010190602001808311610c2e57829003601f168201915b505050506002830154600384015460049094015492936001600160a01b03821693600160a01b90920460ff1692509086565b60009081526002602052604090206003015490565b6000828152600260208181526040808420858552600501825292839020805484516001821615610100026000190190911693909304601f81018390048302840183019094528383526060939091830182828015610d305780601f10610d0557610100808354040283529160200191610d30565b820191906000526020600020905b815481529060010190602001808311610d1357829003601f168201915b5050505050905092915050565b600083815260026020908152604080832085845260050182529091208251610d679284019061107a565b50505050565b600081815260026020819052604090912001546060906001600160a01b03163314610db257604051806060016040528060268152602001611166602691399050610aad565b60008281526002602081905260408220810154600160a01b900460ff1690811115610dd957fe5b14610dfe576040518060600160405280602181526020016111ae602191399050610aad565b50600090815260026020818152604092839020909101805460ff60a01b1916600160a01b1790558151808301909252601082526f566f746163696f6e206162696572746160801b9082015290565b6000818152600260208181526040928390206001908101805485519281161561010002600019011693909304601f8101839004830282018301909452838152606093909291830182828015610ee25780601f10610eb757610100808354040283529160200191610ee2565b820191906000526020600020905b815481529060010190602001808311610ec557829003601f168201915b50505050509050919050565b600081815260026020819052604090912001546060906001600160a01b03163314610f3357604051806060016040528060268152602001611166602691399050610aad565b60026000838152600260208190526040909120810154600160a01b900460ff1690811115610f5d57fe5b1415610f9d575060408051808201909152601f81527f4572726f722c206c6120766f746163696f6e20657374612063657272616461006020820152610aad565b60008281526002602081905260408220810154600160a01b900460ff1690811115610fc457fe5b1415610fea5760405180606001604052806022815260200161118c602291399050610aad565b50600090815260026020818152604092839020909101805460ff60a01b1916600160a11b1790558151808301909252601082526f566f746163696f6e206365727261646160801b9082015290565b60009081526002602052604090206004015490565b60408051808201909152600c81526b48656c6c6f20576f726c642160a01b60208201525b90565b60015490565b828054600181600116156101000203166002900490600052602060002090601f016020900481019282601f106110bb57805160ff19168380011785556110e8565b828001600101855582156110e8579182015b828111156110e85782518255916020019190600101906110cd565b506110f49291506110f8565b5090565b61107191905b808211156110f457600081556001016110fe56fe4572726f722c20766f746163696f6e20656e2065646963696f6e206f20636572726164614572726f722c20656c2063616e64696461746f20736520656e6375656e74726120656e206c6120766f746163696f6e4572726f722c206e6f20657320656c2063726561646f72206465206c6120766f746163696f6e4572726f722c206c6120766f746163696f6e206573746120656e2065646963696f6e4572726f722c20766f746163696f6e2061626965727461206f2063657272616461a265627a7a72315820607c8948c8b8c53b0517acf5d111b53a638b9e5ca3962be7d1f9d99edb70e9ba64736f6c63430005100032",
  "source": "pragma solidity >=0.5.0;\n\ncontract ListaVotaciones{\n    enum Estado {Editando, Abierto, Cerrado} Estado estado;\n    Estado constant estadoBase = Estado.Editando;\n    uint public numVotaciones = 0;\n\n    struct Votacion{\n        uint id_votacion;\n        string titulo;\n        address id_creador;\n        Estado estado;\n        uint numCandidatos;\n        uint numVotantes;\n        mapping (uint => string) candidatos;\n        mapping (uint => VotoEmitido) votosEmitidos;\n    }\n    struct VotoEmitido{\n        address id_votante;\n        uint elegido;\n    }\n\n    mapping (uint => Votacion) public votaciones;\n\n    constructor() public {\n        //nuevaVotacion(\"Votación a delegado de centro\");\n\n    }\n    function sayHello() public pure returns (string memory) {\n        return 'Hello World!';\n    }\n    function getNumVotaciones() public view returns(uint){\n        return numVotaciones;\n    }\n    function getVotacion(uint numVotacion) public view returns(string memory){\n        return votaciones[numVotacion].titulo;\n    }\n    function getNumVotantesVotacion(uint numVotacion) public view returns(uint){\n        return votaciones[numVotacion].numVotantes;\n    }\n    function getEstadoEncuesta(uint numVotacion) public view returns(string memory) {\n        if(votaciones[numVotacion].estado==Estado.Editando){\n            return \"Editando\";\n        }\n        if(votaciones[numVotacion].estado==Estado.Abierto){\n            return \"Abierto\";\n        }\n        if(votaciones[numVotacion].estado==Estado.Cerrado)\n            return \"Cerrado\";\n    }\n    function getNumCandidatos(uint numVotacion) public view returns(uint){\n        return votaciones[numVotacion].numCandidatos;\n    }\n    function getCandidato(uint numVotacion, uint numCandidato) public view returns(string memory){\n        return votaciones[numVotacion].candidatos[numCandidato];\n    }\n    function setCandidato(uint numVotacion, uint numCandidato, string memory nuevoNombre) public{\n        votaciones[numVotacion].candidatos[numCandidato] = nuevoNombre;\n    }\n    function getVotoEmitido(uint numVotacion, uint numVoto) public view returns(uint){\n        //Devuelve el id del votante y su voto elegido. Sirve para hacer el recuento de votos.\n        return votaciones[numVotacion].votosEmitidos[numVoto].elegido;\n    }\n    function nuevaVotacion(string memory _titulo) public returns(uint){\n        //Crear una nueva votación y añadirla a la lista de votaciones\n        //Emitir la nueva votación\n        numVotaciones ++;\n\n        votaciones[numVotaciones] = Votacion(numVotaciones, _titulo, msg.sender, estadoBase, 0, 0);\n        return numVotaciones;\n    }\n    function agregarCandidato(uint numVotacion, string memory candidato) public returns(string memory) {\n        //Si es el creador de la votación\n        if(msg.sender != votaciones[numVotacion].id_creador){ \n            return \"Error, no es el creador de la votacion\";\n        }\n        //Si la votación se encuentra en el estado de ediccion.\n        if(votaciones[numVotacion].estado != Estado.Editando){\n            return \"Error, votacion abierta\";\n        }\n\n        // Si no hay ningún candidato en la votación se añade\n        if(votaciones[numVotacion].numCandidatos==0){\n            votaciones[numVotacion].candidatos[votaciones[numVotacion].numCandidatos] = candidato;\n            votaciones[numVotacion].numCandidatos ++;\n        }\n        // Si hay alguno se comprueba que el nuevo no exista ya.\n        else{\n            for (uint i = 0; i < votaciones[numVotacion].numCandidatos; i++){\n                // Comparación de string en soldity @-@\n                if(keccak256(abi.encodePacked(votaciones[numVotacion].candidatos[i]))==keccak256(abi.encodePacked(candidato))){\n                    return \"Error, el candidato se encuentra en la votacion\";\n                }\n            }        \n            //Si no existe el nuevo candidato en la votacion\n            //Añade el candidato a la votacion.\n            votaciones[numVotacion].candidatos[votaciones[numVotacion].numCandidatos] = candidato;\n            votaciones[numVotacion].numCandidatos ++;\n        }\n        return candidato;\n\n    }\n    function estadoVotacionAbierto(uint numVotacion) public returns(string memory){\n        //Si es el creador de la votación\n        if(msg.sender != votaciones[numVotacion].id_creador){\n            return \"Error, no es el creador de la votacion\";\n        }\n        //Si el estado de la votación es Editando\n        if(votaciones[numVotacion].estado != Estado.Editando){\n            return \"Error, votacion abierta o cerrada\";\n        }\n        //Tomar la votación seleccionada y cambiar el estado a Abierto\n        votaciones[numVotacion].estado = Estado.Abierto;\n        return \"Votacion abierta\";\n    }\n    function estadoVotacionCerrado(uint numVotacion) public returns(string memory){\n        //Si es el creador de la votación\n        if(msg.sender != votaciones[numVotacion].id_creador){\n            return \"Error, no es el creador de la votacion\";\n        }\n        //Si el estado de la votacion es Editando o Abierto\n        if(votaciones[numVotacion].estado == Estado.Cerrado){\n            return \"Error, la votacion esta cerrada\";\n        }\n        if(votaciones[numVotacion].estado == Estado.Editando){\n            return \"Error, la votacion esta en edicion\";\n        }\n        //Tomar la votación seleccionada y cambiar el estado a Cerrado\n        votaciones[numVotacion].estado = Estado.Cerrado;\n        return \"Votacion cerrada\";\n    }\n    function votar(uint numVotacion, uint candidato) public returns(string memory){\n        //Tomar la votación seleccionada\n        //Si el estado de la votación es Votando\n        for (uint i = 0; i < votaciones[numVotacion].numVotantes; i++){\n            if(votaciones[numVotacion].votosEmitidos[i].id_votante == msg.sender){\n                    return \"Error, el votante ya ha votado\";\n            }\n        }    \n        if(votaciones[numVotacion].estado != Estado.Abierto){\n            return \"Error, votacion en edicion o cerrada\";\n        }\n        //Cambia la variable eleccion.\n        votaciones[numVotacion].votosEmitidos[votaciones[numVotacion].numVotantes].id_votante = msg.sender;\n        votaciones[numVotacion].votosEmitidos[votaciones[numVotacion].numVotantes].elegido = candidato;\n        votaciones[numVotacion].numVotantes ++;\n        return \"Voto realizado correctamente\";\n    }\n\n}\n",
  "sourcePath": "/home/fenri/Escritorio/DemocrApp/contracts/ListaVotaciones.sol",
  "compiler": {
    "name": "solc",
    "version": "0.5.16+commit.9c3226ce.Emscripten.clang"
  },
  "schemaVersion": "3.3.3",
  "updatedAt": "2021-02-09T15:48:29.733Z",
  "networkType": "ethereum",
  "devdoc": {
    "methods": {}
  },
  "userdoc": {
    "methods": {}
  }
}