{
  "contractName": "ListaVotaciones",
  "abi": [
    {
      "inputs": [],
      "payable": false,
      "stateMutability": "nonpayable",
      "type": "constructor"
    },
    {
      "constant": true,
      "inputs": [],
      "name": "numVotaciones",
      "outputs": [
        {
          "internalType": "uint256",
          "name": "",
          "type": "uint256"
        }
      ],
      "payable": false,
      "stateMutability": "view",
      "type": "function"
    },
    {
      "constant": true,
      "inputs": [
        {
          "internalType": "uint256",
          "name": "",
          "type": "uint256"
        }
      ],
      "name": "votaciones",
      "outputs": [
        {
          "internalType": "uint256",
          "name": "id_votacion",
          "type": "uint256"
        },
        {
          "internalType": "string",
          "name": "titulo",
          "type": "string"
        },
        {
          "internalType": "address",
          "name": "id_creador",
          "type": "address"
        },
        {
          "internalType": "enum ListaVotaciones.Estado",
          "name": "estado",
          "type": "uint8"
        },
        {
          "internalType": "uint256",
          "name": "numCandidatos",
          "type": "uint256"
        }
      ],
      "payable": false,
      "stateMutability": "view",
      "type": "function"
    },
    {
      "constant": false,
      "inputs": [
        {
          "internalType": "string",
          "name": "_titulo",
          "type": "string"
        }
      ],
      "name": "nuevaVotacion",
      "outputs": [],
      "payable": false,
      "stateMutability": "nonpayable",
      "type": "function"
    },
    {
      "constant": false,
      "inputs": [
        {
          "internalType": "uint256",
          "name": "numVotacion",
          "type": "uint256"
        },
        {
          "internalType": "string",
          "name": "candidato",
          "type": "string"
        }
      ],
      "name": "agregarCandidato",
      "outputs": [],
      "payable": false,
      "stateMutability": "nonpayable",
      "type": "function"
    },
    {
      "constant": false,
      "inputs": [
        {
          "internalType": "uint256",
          "name": "numVotacion",
          "type": "uint256"
        }
      ],
      "name": "estadoVotacionAbierto",
      "outputs": [],
      "payable": false,
      "stateMutability": "nonpayable",
      "type": "function"
    },
    {
      "constant": false,
      "inputs": [
        {
          "internalType": "uint256",
          "name": "numVotacion",
          "type": "uint256"
        }
      ],
      "name": "estadoVotacionCerrado",
      "outputs": [],
      "payable": false,
      "stateMutability": "nonpayable",
      "type": "function"
    },
    {
      "constant": false,
      "inputs": [
        {
          "internalType": "uint256",
          "name": "numVotacion",
          "type": "uint256"
        },
        {
          "internalType": "uint256",
          "name": "candidato",
          "type": "uint256"
        }
      ],
      "name": "votar",
      "outputs": [],
      "payable": false,
      "stateMutability": "nonpayable",
      "type": "function"
    }
  ],
  "bytecode": "0x6080604052600060015534801561001557600080fd5b50610ca2806100256000396000f3fe608060405234801561001057600080fd5b506004361061007d5760003560e01c80634faf2a911161005b5780634faf2a911461016e5780635acf57b514610214578063dec14eb3146102e5578063e741691c146103025761007d565b8063057eacf61461008257806328fcd7ed146101315780634fa5a16f1461014b575b600080fd5b61012f6004803603604081101561009857600080fd5b813591908101906040810160208201356401000000008111156100ba57600080fd5b8201836020820111156100cc57600080fd5b803590602001918460018302840111640100000000831117156100ee57600080fd5b91908080601f01602080910402602001604051908101604052809392919081815260200183838082843760009201919091525092955061031f945050505050565b005b6101396105fc565b60408051918252519081900360200190f35b61012f6004803603604081101561016157600080fd5b5080359060200135610602565b61012f6004803603602081101561018457600080fd5b81019060208101813564010000000081111561019f57600080fd5b8201836020820111156101b157600080fd5b803590602001918460018302840111640100000000831117156101d357600080fd5b91908080601f0160208091040260200160405190810160405280939291908181526020018383808284376000920191909152509295506106e1945050505050565b6102316004803603602081101561022a57600080fd5b503561079a565b6040518086815260200180602001856001600160a01b03166001600160a01b0316815260200184600281111561026357fe5b60ff168152602001838152602001828103825286818151815260200191508051906020019080838360005b838110156102a657818101518382015260200161028e565b50505050905090810190601f1680156102d35780820380516001836020036101000a031916815260200191505b50965050505050505060405180910390f35b61012f600480360360208110156102fb57600080fd5b5035610861565b61012f6004803603602081101561031857600080fd5b503561094b565b600082815260026020819052604090912001546001600160a01b031633146103785760405162461bcd60e51b815260040180806020018281038252603c815260200180610bae603c913960400191505060405180910390fd5b60015460009081526002602081905260408220810154600160a01b900460ff16908111156103a257fe5b146103de5760405162461bcd60e51b815260040180806020018281038252603f815260200180610bea603f913960400191505060405180910390fd5b600082815260026020526040902060030154610440576000828152600260209081526040808320600381015484526004018252909120825161042292840190610a32565b506000828152600260205260409020600301805460010190556105f8565b60005b6000838152600260205260409020600301548110156105af57816040516020018082805190602001908083835b6020831061048f5780518252601f199092019160209182019101610470565b6001836020036101000a03801982511681845116808217855250505050505090500191505060405160208183030381529060405280519060200120600260008581526020019081526020016000206004016000838152602001908152602001600020604051602001808280546001816001161561010002031660029004801561054f5780601f1061052d57610100808354040283529182019161054f565b820191906000526020600020905b81548152906001019060200180831161053b575b50509150506040516020818303038152906040528051906020012014156105a75760405162461bcd60e51b8152600401808060200182810382526029815260200180610b106029913960400191505060405180910390fd5b600101610443565b50600082815260026020908152604080832060038101548452600401825290912082516105de92840190610a32565b506000828152600260205260409020600301805460010190555b5050565b60015481565b60016000838152600260208190526040909120810154600160a01b900460ff169081111561062c57fe5b146106685760405162461bcd60e51b815260040180806020018281038252603d815260200180610b71603d913960400191505060405180910390fd5b6000828152600260209081526040808320338452600501909152902054156106c15760405162461bcd60e51b8152600401808060200182810382526038815260200180610b396038913960400191505060405180910390fd5b600091825260026020908152604080842033855260050190915290912055565b6001805481018082556040805160a0810182528281526020808201868152338385015260006060840181905260808401819052948552600282529290932081518155915180519194929361073a93850192910190610a32565b506040820151600282810180546001600160a01b0319166001600160a01b03909316929092178083556060850151929160ff60a01b1990911690600160a01b90849081111561078557fe5b02179055506080820151816003015590505050565b60026020818152600092835260409283902080546001808301805487519281161561010002600019011695909504601f81018590048502820185019096528581529094919390929091908301828280156108355780601f1061080a57610100808354040283529160200191610835565b820191906000526020600020905b81548152906001019060200180831161081857829003601f168201915b50505050600283015460039093015491926001600160a01b03811692600160a01b90910460ff16915085565b600081815260026020819052604090912001546001600160a01b031633146108ba5760405162461bcd60e51b815260040180806020018281038252603c815260200180610bae603c913960400191505060405180910390fd5b60008181526002602081905260408220810154600160a01b900460ff16908111156108e157fe5b1461091d5760405162461bcd60e51b8152600401808060200182810382526045815260200180610c296045913960600191505060405180910390fd5b60008181526002602081905260409091200180546001919060ff60a01b1916600160a01b835b021790555050565b600081815260026020819052604090912001546001600160a01b031633146109a45760405162461bcd60e51b815260040180806020018281038252603c815260200180610bae603c913960400191505060405180910390fd5b60026000828152600260208190526040909120810154600160a01b900460ff16908111156109ce57fe5b1415610a0b5760405162461bcd60e51b8152600401808060200182810382526042815260200180610ace6042913960600191505060405180910390fd5b60008181526002602081905260409091208101805460ff60a01b1916600160a01b83610943565b828054600181600116156101000203166002900490600052602060002090601f016020900481019282601f10610a7357805160ff1916838001178555610aa0565b82800160010185558215610aa0579182015b82811115610aa0578251825591602001919060010190610a85565b50610aac929150610ab0565b5090565b610aca91905b80821115610aac5760008155600101610ab6565b9056fe4c6120766f74616369c3b36e206465626520657374617220656469636369c3b36e206f2061626965727461207061726120706f646572207365722063657272616461456c2063616e64696461746f20736520656e6375656e74726120656e206c6120766f74616369c3b36e456c20766f74616e7465206e6f207469656e652071756520657869737469722064656e74726f206465206c617320766f746163696f6e65734c6120766f74616369c3b36e20646562652065737461722061626965727461206120766f746163696f6e6573207061726120706f64657220766f746172536f6c6f20656c2063726561646f72206465206c6120766f74616369c3b36e207075656465206c6c616d6172206120657374612066756e6369c3b36e4c6120766f74616369c3b36e206465626520657374617220656469636369c3b36e207061726120706f64657220616772656761722063616e64696461746f734c6120766f74616369c3b36e206465626520657374617220656469636369c3b36e207061726120706f646572207365722061626965727461206120766f746163696f6e6573a265627a7a72315820a6e6b294398e1fa65750fb5881a687359e06be7efe6115af94c012160990606564736f6c63430005100032",
  "source": "pragma solidity ^0.5.0;\r\n\r\ncontract ListaVotaciones{\r\n    enum Estado {Editando, Abierto, Cerrado} Estado estado;\r\n    Estado constant estadoBase = Estado.Editando;\r\n    uint public numVotaciones = 0;\r\n\r\n    struct Votacion {\r\n        uint id_votacion;\r\n        string titulo;\r\n        address id_creador;\r\n        Estado estado;\r\n        uint numCandidatos;\r\n        mapping(uint => string) candidatos;\r\n        mapping(address => uint) votosEmitidos;\r\n    }\r\n\r\n    mapping (uint => Votacion) public votaciones;\r\n\r\n    constructor() public {\r\n        //nuevaVotacion(\"Votación a delegado de centro\");\r\n\r\n    }\r\n\r\n    function nuevaVotacion(string memory _titulo) public{\r\n        //Crear una nueva votación y añadirla a la lista de votaciones\r\n        //Emitir la nueva votación\r\n        numVotaciones ++;\r\n        votaciones[numVotaciones] = Votacion(numVotaciones, _titulo, msg.sender, estadoBase, 0);\r\n    }\r\n\r\n    function agregarCandidato(uint numVotacion, string memory candidato) public {\r\n        //Si es el creador de la votación\r\n        require(\r\n            msg.sender == votaciones[numVotacion].id_creador,\r\n            \"Solo el creador de la votación puede llamar a esta función\"\r\n        );\r\n        //Si la votación se encuentra en el estado de ediccion.\r\n        require(\r\n            votaciones[numVotaciones].estado == Estado.Editando,\r\n            \"La votación debe estar edicción para poder agregar candidatos\"\r\n        );\r\n\r\n        // Si no hay ningún candidato en la votación se añade\r\n        if(votaciones[numVotacion].numCandidatos==0){\r\n            votaciones[numVotacion].candidatos[votaciones[numVotacion].numCandidatos] = candidato;\r\n            votaciones[numVotacion].numCandidatos ++;\r\n        }\r\n        // Si hay alguno se comprueba que el nuevo no exista ya.\r\n        else{\r\n            for (uint i = 0; i < votaciones[numVotacion].numCandidatos; i++){\r\n                // Comparación de string en soldity @-@\r\n                if(keccak256(abi.encodePacked(votaciones[numVotacion].candidatos[i]))==keccak256(abi.encodePacked(candidato))){\r\n                    revert(\"El candidato se encuentra en la votación\");\r\n                }\r\n            }        \r\n            //Si no existe el nuevo candidato en la votacion\r\n            //Añade el candidato a la votacion.\r\n            votaciones[numVotacion].candidatos[votaciones[numVotacion].numCandidatos] = candidato;\r\n            votaciones[numVotacion].numCandidatos ++;\r\n        }\r\n\r\n    }\r\n\r\n    function estadoVotacionAbierto(uint numVotacion) public{\r\n        //Si es el creador de la votación\r\n        require(\r\n            msg.sender == votaciones[numVotacion].id_creador,\r\n            \"Solo el creador de la votación puede llamar a esta función\"\r\n        );\r\n        //Si el estado de la votación es Editando\r\n        require(\r\n            votaciones[numVotacion].estado == Estado.Editando,\r\n            \"La votación debe estar edicción para poder ser abierta a votaciones\"\r\n        );\r\n        //Tomar la votación seleccionada y cambiar el estado a Abierto\r\n        votaciones[numVotacion].estado = Estado.Abierto;\r\n    }\r\n\r\n    function estadoVotacionCerrado(uint numVotacion) public{\r\n        //Si es el creador de la votación\r\n        require(\r\n            msg.sender == votaciones[numVotacion].id_creador,\r\n            \"Solo el creador de la votación puede llamar a esta función\"\r\n        );\r\n        //Si el estado de la votacion es Editando o Abierto\r\n        require(\r\n            votaciones[numVotacion].estado != Estado.Cerrado,\r\n            \"La votación debe estar edicción o abierta para poder ser cerrada\"\r\n        ); \r\n        //Tomar la votación seleccionada y cambiar el estado a Cerrado\r\n        votaciones[numVotacion].estado = Estado.Cerrado;\r\n    }\r\n\r\n    function votar(uint numVotacion, uint candidato) public {\r\n        //Tomar la votación seleccionada\r\n        //Si el estado de la votación es Votando\r\n        require(\r\n            votaciones[numVotacion].estado == Estado.Abierto,\r\n            \"La votación debe estar abierta a votaciones para poder votar\"\r\n        ); \r\n        require(\r\n            votaciones[numVotacion].votosEmitidos[msg.sender] == 0,\r\n            \"El votante no tiene que existir dentro de las votaciones\"\r\n        );\r\n        //Cambia la variable eleccion.\r\n        votaciones[numVotacion].votosEmitidos[msg.sender] = candidato;\r\n    }\r\n\r\n}\r\n",
  "sourcePath": "C:/Users/ferna/Desktop/DemocrApp/contracts/ListaVotaciones.sol",
  "compiler": {
    "name": "solc",
    "version": "0.5.16+commit.9c3226ce.Emscripten.clang"
  },
  "schemaVersion": "3.3.3",
  "updatedAt": "2021-01-30T11:57:00.414Z",
  "networkType": "ethereum",
  "devdoc": {
    "methods": {}
  },
  "userdoc": {
    "methods": {}
  }
}