{
  "contractName": "ListaVotaciones",
  "abi": [
    {
      "inputs": [],
      "payable": false,
      "stateMutability": "nonpayable",
      "type": "constructor"
    },
    {
      "constant": true,
      "inputs": [],
      "name": "numVotaciones",
      "outputs": [
        {
          "internalType": "uint256",
          "name": "",
          "type": "uint256"
        }
      ],
      "payable": false,
      "stateMutability": "view",
      "type": "function"
    },
    {
      "constant": true,
      "inputs": [
        {
          "internalType": "uint256",
          "name": "",
          "type": "uint256"
        }
      ],
      "name": "votaciones",
      "outputs": [
        {
          "internalType": "uint256",
          "name": "id_votacion",
          "type": "uint256"
        },
        {
          "internalType": "string",
          "name": "titulo",
          "type": "string"
        },
        {
          "internalType": "address",
          "name": "id_creador",
          "type": "address"
        },
        {
          "internalType": "enum ListaVotaciones.Estado",
          "name": "estado",
          "type": "uint8"
        },
        {
          "internalType": "uint256",
          "name": "numCandidatos",
          "type": "uint256"
        },
        {
          "internalType": "uint256",
          "name": "numVotantes",
          "type": "uint256"
        }
      ],
      "payable": false,
      "stateMutability": "view",
      "type": "function"
    },
    {
      "constant": true,
      "inputs": [],
      "name": "sayHello",
      "outputs": [
        {
          "internalType": "string",
          "name": "",
          "type": "string"
        }
      ],
      "payable": false,
      "stateMutability": "pure",
      "type": "function"
    },
    {
      "constant": true,
      "inputs": [],
      "name": "getNumVotaciones",
      "outputs": [
        {
          "internalType": "uint256",
          "name": "",
          "type": "uint256"
        }
      ],
      "payable": false,
      "stateMutability": "view",
      "type": "function"
    },
    {
      "constant": true,
      "inputs": [
        {
          "internalType": "uint256",
          "name": "numVotacion",
          "type": "uint256"
        }
      ],
      "name": "getVotacion",
      "outputs": [
        {
          "internalType": "string",
          "name": "",
          "type": "string"
        }
      ],
      "payable": false,
      "stateMutability": "view",
      "type": "function"
    },
    {
      "constant": true,
      "inputs": [
        {
          "internalType": "uint256",
          "name": "numVotacion",
          "type": "uint256"
        }
      ],
      "name": "getNumCandidatos",
      "outputs": [
        {
          "internalType": "uint256",
          "name": "",
          "type": "uint256"
        }
      ],
      "payable": false,
      "stateMutability": "view",
      "type": "function"
    },
    {
      "constant": true,
      "inputs": [
        {
          "internalType": "uint256",
          "name": "numVotacion",
          "type": "uint256"
        },
        {
          "internalType": "uint256",
          "name": "numCandidato",
          "type": "uint256"
        }
      ],
      "name": "getCandidato",
      "outputs": [
        {
          "internalType": "string",
          "name": "",
          "type": "string"
        }
      ],
      "payable": false,
      "stateMutability": "view",
      "type": "function"
    },
    {
      "constant": false,
      "inputs": [
        {
          "internalType": "uint256",
          "name": "numVotacion",
          "type": "uint256"
        },
        {
          "internalType": "uint256",
          "name": "numCandidato",
          "type": "uint256"
        },
        {
          "internalType": "string",
          "name": "nuevoNombre",
          "type": "string"
        }
      ],
      "name": "setCandidato",
      "outputs": [],
      "payable": false,
      "stateMutability": "nonpayable",
      "type": "function"
    },
    {
      "constant": true,
      "inputs": [
        {
          "internalType": "uint256",
          "name": "numVotacion",
          "type": "uint256"
        },
        {
          "internalType": "uint256",
          "name": "numVoto",
          "type": "uint256"
        }
      ],
      "name": "getVotosEmitido",
      "outputs": [
        {
          "internalType": "address",
          "name": "",
          "type": "address"
        },
        {
          "internalType": "uint256",
          "name": "",
          "type": "uint256"
        }
      ],
      "payable": false,
      "stateMutability": "view",
      "type": "function"
    },
    {
      "constant": false,
      "inputs": [
        {
          "internalType": "string",
          "name": "_titulo",
          "type": "string"
        }
      ],
      "name": "nuevaVotacion",
      "outputs": [
        {
          "internalType": "uint256",
          "name": "",
          "type": "uint256"
        }
      ],
      "payable": false,
      "stateMutability": "nonpayable",
      "type": "function"
    },
    {
      "constant": false,
      "inputs": [
        {
          "internalType": "uint256",
          "name": "numVotacion",
          "type": "uint256"
        },
        {
          "internalType": "string",
          "name": "candidato",
          "type": "string"
        }
      ],
      "name": "agregarCandidato",
      "outputs": [
        {
          "internalType": "string",
          "name": "",
          "type": "string"
        }
      ],
      "payable": false,
      "stateMutability": "nonpayable",
      "type": "function"
    },
    {
      "constant": false,
      "inputs": [
        {
          "internalType": "uint256",
          "name": "numVotacion",
          "type": "uint256"
        }
      ],
      "name": "estadoVotacionAbierto",
      "outputs": [
        {
          "internalType": "string",
          "name": "",
          "type": "string"
        }
      ],
      "payable": false,
      "stateMutability": "nonpayable",
      "type": "function"
    },
    {
      "constant": false,
      "inputs": [
        {
          "internalType": "uint256",
          "name": "numVotacion",
          "type": "uint256"
        }
      ],
      "name": "estadoVotacionCerrado",
      "outputs": [
        {
          "internalType": "string",
          "name": "",
          "type": "string"
        }
      ],
      "payable": false,
      "stateMutability": "nonpayable",
      "type": "function"
    },
    {
      "constant": false,
      "inputs": [
        {
          "internalType": "uint256",
          "name": "numVotacion",
          "type": "uint256"
        },
        {
          "internalType": "uint256",
          "name": "candidato",
          "type": "uint256"
        }
      ],
      "name": "votar",
      "outputs": [
        {
          "internalType": "string",
          "name": "",
          "type": "string"
        }
      ],
      "payable": false,
      "stateMutability": "nonpayable",
      "type": "function"
    }
  ],
  "bytecode": "0x6080604052600060015534801561001557600080fd5b506110d2806100256000396000f3fe608060405234801561001057600080fd5b50600436106100ea5760003560e01c8063a4579ed31161008c578063e353e38511610066578063e353e38514610523578063e741691c14610540578063ef5fb05b1461055d578063f661ed7414610565576100ea565b8063a4579ed31461040c578063b0e7e17d146104c0578063dec14eb314610506576100ea565b80634faf2a91116100c85780634faf2a911461024e5780635acf57b5146102f45780636d9fa5f6146103cc578063725f92a2146103e9576100ea565b8063057eacf6146100ef57806328fcd7ed146102115780634fa5a16f1461022b575b600080fd5b61019c6004803603604081101561010557600080fd5b8135919081019060408101602082013564010000000081111561012757600080fd5b82018360208201111561013957600080fd5b8035906020019184600183028401116401000000008311171561015b57600080fd5b91908080601f01602080910402602001604051908101604052809392919081815260200183838082843760009201919091525092955061056d945050505050565b6040805160208082528351818301528351919283929083019185019080838360005b838110156101d65781810151838201526020016101be565b50505050905090810190601f1680156102035780820380516001836020036101000a031916815260200191505b509250505060405180910390f35b610219610825565b60408051918252519081900360200190f35b61019c6004803603604081101561024157600080fd5b508035906020013561082b565b6102196004803603602081101561026457600080fd5b81019060208101813564010000000081111561027f57600080fd5b82018360208201111561029157600080fd5b803590602001918460018302840111640100000000831117156102b357600080fd5b91908080601f016020809104026020016040519081016040528093929190818152602001838380828437600092019190915250929550610990945050505050565b6103116004803603602081101561030a57600080fd5b5035610a61565b6040518087815260200180602001866001600160a01b03166001600160a01b0316815260200185600281111561034357fe5b60ff168152602001848152602001838152602001828103825287818151815260200191508051906020019080838360005b8381101561038c578181015183820152602001610374565b50505050905090810190601f1680156103b95780820380516001836020036101000a031916815260200191505b5097505050505050505060405180910390f35b610219600480360360208110156103e257600080fd5b5035610b2e565b61019c600480360360408110156103ff57600080fd5b5080359060200135610b43565b6104be6004803603606081101561042257600080fd5b81359160208101359181019060608101604082013564010000000081111561044957600080fd5b82018360208201111561045b57600080fd5b8035906020019184600183028401116401000000008311171561047d57600080fd5b91908080601f016020809104026020016040519081016040528093929190818152602001838380828437600092019190915250929550610bee945050505050565b005b6104e3600480360360408110156104d657600080fd5b5080359060200135610c1e565b604080516001600160a01b03909316835260208301919091528051918290030190f35b61019c6004803603602081101561051c57600080fd5b5035610c51565b61019c6004803603602081101561053957600080fd5b5035610d30565b61019c6004803603602081101561055657600080fd5b5035610dd2565b61019c610f1c565b610219610f43565b600082815260026020819052604090912001546060906001600160a01b031633146105b25760405180606001604052806026815260200161103560269139905061081f565b60008381526002602081905260408220810154600160a01b900460ff16908111156105d957fe5b14610618575060408051808201909152601781527f4572726f722c20766f746163696f6e2061626965727461000000000000000000602082015261081f565b60008381526002602052604090206003015461067a576000838152600260209081526040808320600381015484526005018252909120835161065c92850190610f49565b5060008381526002602052604090206003018054600101905561081c565b60005b6000848152600260205260409020600301548110156107d357826040516020018082805190602001908083835b602083106106c95780518252601f1990920191602091820191016106aa565b6001836020036101000a0380198251168184511680821785525050505050509050019150506040516020818303038152906040528051906020012060026000868152602001908152602001600020600501600083815260200190815260200160002060405160200180828054600181600116156101000203166002900480156107895780601f10610767576101008083540402835291820191610789565b820191906000526020600020905b815481529060010190602001808311610775575b50509150506040516020818303038152906040528051906020012014156107cb576040518060600160405280602f8152602001611006602f913991505061081f565b60010161067d565b506000838152600260209081526040808320600381015484526005018252909120835161080292850190610f49565b506000838152600260205260409020600301805460010190555b50805b92915050565b60015481565b606060005b6000848152600260205260409020600401548110156108b95760008481526002602090815260408083208484526006019091529020546001600160a01b03163314156108b157505060408051808201909152601e81527f4572726f722c20656c20766f74616e746520796120686120766f7461646f0000602082015261081f565b600101610830565b5060016000848152600260208190526040909120810154600160a01b900460ff16908111156108e457fe5b1461090957604051806060016040528060248152602001610fe260249139905061081f565b50600082815260026020818152604080842060048101805486526006909101835281852080546001600160a01b03191633179055805485528185206001908101969096559590935290815283549092019092558151808301909252601c82527f566f746f207265616c697a61646f20636f7272656374616d656e7465000000009082015290565b6001805481018082556040805160c081018252828152602080820186815233838501526000606084018190526080840181905260a08401819052948552600282529284208251815592518051949592946109f1938501929190910190610f49565b506040820151600282810180546001600160a01b0319166001600160a01b03909316929092178083556060850151929160ff60a01b1990911690600160a01b908490811115610a3c57fe5b02179055506080820151600382015560a090910151600490910155506001545b919050565b60026020818152600092835260409283902080546001808301805487519281161561010002600019011695909504601f8101859004850282018501909652858152909491939092909190830182828015610afc5780601f10610ad157610100808354040283529160200191610afc565b820191906000526020600020905b815481529060010190602001808311610adf57829003601f168201915b505050506002830154600384015460049094015492936001600160a01b03821693600160a01b90920460ff1692509086565b60009081526002602052604090206003015490565b6000828152600260208181526040808420858552600501825292839020805484516001821615610100026000190190911693909304601f81018390048302840183019094528383526060939091830182828015610be15780601f10610bb657610100808354040283529160200191610be1565b820191906000526020600020905b815481529060010190602001808311610bc457829003601f168201915b5050505050905092915050565b600083815260026020908152604080832085845260050182529091208251610c1892840190610f49565b50505050565b600091825260026020908152604080842092845260069092019052902080546001909101546001600160a01b0390911691565b600081815260026020819052604090912001546060906001600160a01b03163314610c9657604051806060016040528060268152602001611035602691399050610a5c565b60008281526002602081905260408220810154600160a01b900460ff1690811115610cbd57fe5b14610ce25760405180606001604052806021815260200161107d602191399050610a5c565b50600090815260026020818152604092839020909101805460ff60a01b1916600160a01b1790558151808301909252601082526f566f746163696f6e206162696572746160801b9082015290565b6000818152600260208181526040928390206001908101805485519281161561010002600019011693909304601f8101839004830282018301909452838152606093909291830182828015610dc65780601f10610d9b57610100808354040283529160200191610dc6565b820191906000526020600020905b815481529060010190602001808311610da957829003601f168201915b50505050509050919050565b600081815260026020819052604090912001546060906001600160a01b03163314610e1757604051806060016040528060268152602001611035602691399050610a5c565b60026000838152600260208190526040909120810154600160a01b900460ff1690811115610e4157fe5b1415610e81575060408051808201909152601f81527f4572726f722c206c6120766f746163696f6e20657374612063657272616461006020820152610a5c565b60008281526002602081905260408220810154600160a01b900460ff1690811115610ea857fe5b1415610ece5760405180606001604052806022815260200161105b602291399050610a5c565b50600090815260026020818152604092839020909101805460ff60a01b1916600160a11b1790558151808301909252601082526f566f746163696f6e206365727261646160801b9082015290565b60408051808201909152600c81526b48656c6c6f20576f726c642160a01b60208201525b90565b60015490565b828054600181600116156101000203166002900490600052602060002090601f016020900481019282601f10610f8a57805160ff1916838001178555610fb7565b82800160010185558215610fb7579182015b82811115610fb7578251825591602001919060010190610f9c565b50610fc3929150610fc7565b5090565b610f4091905b80821115610fc35760008155600101610fcd56fe4572726f722c20766f746163696f6e20656e2065646963696f6e206f20636572726164614572726f722c20656c2063616e64696461746f20736520656e6375656e74726120656e206c6120766f746163696f6e4572726f722c206e6f20657320656c2063726561646f72206465206c6120766f746163696f6e4572726f722c206c6120766f746163696f6e206573746120656e2065646963696f6e4572726f722c20766f746163696f6e2061626965727461206f2063657272616461a265627a7a72315820eb56a34e601c49da3f0c84be8bffc86ca2c4583d31ef6103ba1fc51dcf515edb64736f6c63430005100032",
  "source": "pragma solidity >=0.5.0;\r\n\r\ncontract ListaVotaciones{\r\n    enum Estado {Editando, Abierto, Cerrado} Estado estado;\r\n    Estado constant estadoBase = Estado.Editando;\r\n    uint public numVotaciones = 0;\r\n\r\n    struct Votacion{\r\n        uint id_votacion;\r\n        string titulo;\r\n        address id_creador;\r\n        Estado estado;\r\n        uint numCandidatos;\r\n        uint numVotantes;\r\n        mapping (uint => string) candidatos;\r\n        mapping (uint => VotoEmitido) votosEmitidos;\r\n    }\r\n    struct VotoEmitido{\r\n        address id_votante;\r\n        uint elegido;\r\n    }\r\n\r\n    mapping (uint => Votacion) public votaciones;\r\n\r\n    constructor() public {\r\n        //nuevaVotacion(\"Votación a delegado de centro\");\r\n\r\n    }\r\n    function sayHello() public pure returns (string memory) {\r\n        return 'Hello World!';\r\n    }\r\n    function getNumVotaciones() public view returns(uint){\r\n        return numVotaciones;\r\n    }\r\n    function getVotacion(uint numVotacion) public view returns(string memory){\r\n        return votaciones[numVotacion].titulo;\r\n    }\r\n    function getNumCandidatos(uint numVotacion) public view returns(uint){\r\n        return votaciones[numVotacion].numCandidatos;\r\n    }\r\n    function getCandidato(uint numVotacion, uint numCandidato) public view returns(string memory){\r\n        return votaciones[numVotacion].candidatos[numCandidato];\r\n    }\r\n    function setCandidato(uint numVotacion, uint numCandidato, string memory nuevoNombre) public{\r\n        votaciones[numVotacion].candidatos[numCandidato] = nuevoNombre;\r\n    }\r\n    function getVotosEmitido(uint numVotacion, uint numVoto) public view returns(address, uint){\r\n        //Devuelve el id del votante y su voto elegido. Sirve para hacer el recuento de votos.\r\n        return (votaciones[numVotacion].votosEmitidos[numVoto].id_votante, votaciones[numVotacion].votosEmitidos[numVoto].elegido);\r\n    }\r\n    function nuevaVotacion(string memory _titulo) public returns(uint){\r\n        //Crear una nueva votación y añadirla a la lista de votaciones\r\n        //Emitir la nueva votación\r\n        numVotaciones ++;\r\n\r\n        votaciones[numVotaciones] = Votacion(numVotaciones, _titulo, msg.sender, estadoBase, 0, 0);\r\n        return numVotaciones;\r\n    }\r\n    function agregarCandidato(uint numVotacion, string memory candidato) public returns(string memory) {\r\n        //Si es el creador de la votación\r\n        if(msg.sender != votaciones[numVotacion].id_creador){ \r\n            return \"Error, no es el creador de la votacion\";\r\n        }\r\n        //Si la votación se encuentra en el estado de ediccion.\r\n        if(votaciones[numVotacion].estado != Estado.Editando){\r\n            return \"Error, votacion abierta\";\r\n        }\r\n\r\n        // Si no hay ningún candidato en la votación se añade\r\n        if(votaciones[numVotacion].numCandidatos==0){\r\n            votaciones[numVotacion].candidatos[votaciones[numVotacion].numCandidatos] = candidato;\r\n            votaciones[numVotacion].numCandidatos ++;\r\n        }\r\n        // Si hay alguno se comprueba que el nuevo no exista ya.\r\n        else{\r\n            for (uint i = 0; i < votaciones[numVotacion].numCandidatos; i++){\r\n                // Comparación de string en soldity @-@\r\n                if(keccak256(abi.encodePacked(votaciones[numVotacion].candidatos[i]))==keccak256(abi.encodePacked(candidato))){\r\n                    return \"Error, el candidato se encuentra en la votacion\";\r\n                }\r\n            }        \r\n            //Si no existe el nuevo candidato en la votacion\r\n            //Añade el candidato a la votacion.\r\n            votaciones[numVotacion].candidatos[votaciones[numVotacion].numCandidatos] = candidato;\r\n            votaciones[numVotacion].numCandidatos ++;\r\n        }\r\n        return candidato;\r\n\r\n    }\r\n    function estadoVotacionAbierto(uint numVotacion) public returns(string memory){\r\n        //Si es el creador de la votación\r\n        if(msg.sender != votaciones[numVotacion].id_creador){\r\n            return \"Error, no es el creador de la votacion\";\r\n        }\r\n        //Si el estado de la votación es Editando\r\n        if(votaciones[numVotacion].estado != Estado.Editando){\r\n            return \"Error, votacion abierta o cerrada\";\r\n        }\r\n        //Tomar la votación seleccionada y cambiar el estado a Abierto\r\n        votaciones[numVotacion].estado = Estado.Abierto;\r\n        return \"Votacion abierta\";\r\n    }\r\n    function estadoVotacionCerrado(uint numVotacion) public returns(string memory){\r\n        //Si es el creador de la votación\r\n        if(msg.sender != votaciones[numVotacion].id_creador){\r\n            return \"Error, no es el creador de la votacion\";\r\n        }\r\n        //Si el estado de la votacion es Editando o Abierto\r\n        if(votaciones[numVotacion].estado == Estado.Cerrado){\r\n            return \"Error, la votacion esta cerrada\";\r\n        }\r\n        if(votaciones[numVotacion].estado == Estado.Editando){\r\n            return \"Error, la votacion esta en edicion\";\r\n        }\r\n        //Tomar la votación seleccionada y cambiar el estado a Cerrado\r\n        votaciones[numVotacion].estado = Estado.Cerrado;\r\n        return \"Votacion cerrada\";\r\n    }\r\n    function votar(uint numVotacion, uint candidato) public returns(string memory){\r\n        //Tomar la votación seleccionada\r\n        //Si el estado de la votación es Votando\r\n        for (uint i = 0; i < votaciones[numVotacion].numVotantes; i++){\r\n            if(votaciones[numVotacion].votosEmitidos[i].id_votante == msg.sender){\r\n                    return \"Error, el votante ya ha votado\";\r\n            }\r\n        }    \r\n        if(votaciones[numVotacion].estado != Estado.Abierto){\r\n            return \"Error, votacion en edicion o cerrada\";\r\n        }\r\n        //Cambia la variable eleccion.\r\n        votaciones[numVotacion].votosEmitidos[votaciones[numVotacion].numVotantes].id_votante = msg.sender;\r\n        votaciones[numVotacion].votosEmitidos[votaciones[numVotacion].numVotantes].elegido = candidato;\r\n        votaciones[numVotacion].numVotantes ++;\r\n        return \"Voto realizado correctamente\";\r\n    }\r\n\r\n}\r\n",
  "sourcePath": "C:/Users/ferna/Desktop/DemocrApp/contracts/ListaVotaciones.sol",
  "compiler": {
    "name": "solc",
    "version": "0.5.16+commit.9c3226ce.Emscripten.clang"
  },
  "schemaVersion": "3.3.3",
  "updatedAt": "2021-02-07T19:51:01.062Z",
  "networkType": "ethereum",
  "devdoc": {
    "methods": {}
  },
  "userdoc": {
    "methods": {}
  }
}