{
  "contractName": "ListaVotaciones",
  "abi": [
    {
      "inputs": [],
      "payable": false,
      "stateMutability": "nonpayable",
      "type": "constructor"
    },
    {
      "constant": true,
      "inputs": [],
      "name": "numVotaciones",
      "outputs": [
        {
          "internalType": "uint256",
          "name": "",
          "type": "uint256"
        }
      ],
      "payable": false,
      "stateMutability": "view",
      "type": "function"
    },
    {
      "constant": true,
      "inputs": [
        {
          "internalType": "uint256",
          "name": "",
          "type": "uint256"
        }
      ],
      "name": "votaciones",
      "outputs": [
        {
          "internalType": "uint256",
          "name": "id_votacion",
          "type": "uint256"
        },
        {
          "internalType": "string",
          "name": "titulo",
          "type": "string"
        },
        {
          "internalType": "address",
          "name": "id_creador",
          "type": "address"
        },
        {
          "internalType": "enum ListaVotaciones.Estado",
          "name": "estado",
          "type": "uint8"
        }
      ],
      "payable": false,
      "stateMutability": "view",
      "type": "function"
    },
    {
      "constant": false,
      "inputs": [
        {
          "internalType": "string",
          "name": "_titulo",
          "type": "string"
        }
      ],
      "name": "nuevaVotacion",
      "outputs": [],
      "payable": false,
      "stateMutability": "nonpayable",
      "type": "function"
    },
    {
      "constant": false,
      "inputs": [],
      "name": "agregarCandidato",
      "outputs": [],
      "payable": false,
      "stateMutability": "nonpayable",
      "type": "function"
    },
    {
      "constant": false,
      "inputs": [],
      "name": "accederVotacion",
      "outputs": [],
      "payable": false,
      "stateMutability": "nonpayable",
      "type": "function"
    },
    {
      "constant": false,
      "inputs": [],
      "name": "estadoVotacionAbierto",
      "outputs": [],
      "payable": false,
      "stateMutability": "nonpayable",
      "type": "function"
    },
    {
      "constant": false,
      "inputs": [],
      "name": "estadoVotacionCerrado",
      "outputs": [],
      "payable": false,
      "stateMutability": "nonpayable",
      "type": "function"
    },
    {
      "constant": false,
      "inputs": [],
      "name": "votar",
      "outputs": [],
      "payable": false,
      "stateMutability": "nonpayable",
      "type": "function"
    }
  ],
  "bytecode": "0x6080604052600060015534801561001557600080fd5b5060408051808201909152601e81527f566f74616369c3b36e20612064656c656761646f2064652063656e74726f0000602082015261005c906001600160e01b0361006116565b6101a3565b600180548101808255604080516080810182528281526020808201868152338385015260006060840181905294855260028252929093208151815591518051919492936100b393850192910190610108565b506040820151600282810180546001600160a01b0319166001600160a01b03909316929092178083556060850151929160ff60a01b1990911690600160a01b9084908111156100fe57fe5b0217905550505050565b828054600181600116156101000203166002900490600052602060002090601f016020900481019282601f1061014957805160ff1916838001178555610176565b82800160010185558215610176579182015b8281111561017657825182559160200191906001019061015b565b50610182929150610186565b5090565b6101a091905b80821115610182576000815560010161018c565b90565b610461806101b26000396000f3fe608060405234801561001057600080fd5b50600436106100885760003560e01c80635acf57b51161005b5780635acf57b5146101575780638a380e44146100a7578063cc52e3d8146100a7578063ee972169146100a757610088565b806328fcd7ed1461008d5780632c8d0ef8146100a7578063452274af146100a75780634faf2a91146100b1575b600080fd5b610095610221565b60408051918252519081900360200190f35b6100af610227565b005b6100af600480360360208110156100c757600080fd5b8101906020810181356401000000008111156100e257600080fd5b8201836020820111156100f457600080fd5b8035906020019184600183028401116401000000008311171561011657600080fd5b91908080601f016020809104026020016040519081016040528093929190818152602001838380828437600092019190915250929550610229945050505050565b6101746004803603602081101561016d57600080fd5b50356102d0565b6040518085815260200180602001846001600160a01b03166001600160a01b031681526020018360028111156101a657fe5b60ff168152602001828103825285818151815260200191508051906020019080838360005b838110156101e35781810151838201526020016101cb565b50505050905090810190601f1680156102105780820380516001836020036101000a031916815260200191505b509550505050505060405180910390f35b60015481565b565b6001805481018082556040805160808101825282815260208082018681523383850152600060608401819052948552600282529290932081518155915180519194929361027b93850192910190610391565b506040820151600282810180546001600160a01b0319166001600160a01b03909316929092178083556060850151929160ff60a01b1990911690600160a01b9084908111156102c657fe5b0217905550505050565b60026020818152600092835260409283902080546001808301805487519281161561010002600019011695909504601f810185900485028201850190965285815290949193909290919083018282801561036b5780601f106103405761010080835404028352916020019161036b565b820191906000526020600020905b81548152906001019060200180831161034e57829003601f168201915b505050600290930154919250506001600160a01b0381169060ff600160a01b9091041684565b828054600181600116156101000203166002900490600052602060002090601f016020900481019282601f106103d257805160ff19168380011785556103ff565b828001600101855582156103ff579182015b828111156103ff5782518255916020019190600101906103e4565b5061040b92915061040f565b5090565b61042991905b8082111561040b5760008155600101610415565b9056fea265627a7a72315820369663d77702701756a58fcc729ed1ea57e1eaec12bee0e9a86882640120e67864736f6c63430005100032",
  "source": "pragma solidity ^0.5.0;\r\n\r\ncontract ListaVotaciones{\r\n    enum Estado {Editando, Abierto, Cerrado} Estado estado;\r\n    Estado constant estadoBase = Estado.Editando;\r\n    uint public numVotaciones = 0;\r\n\r\n    // struct Votante {\r\n    //     uint id_votante;\r\n    //     string candidato_elegido;\r\n    //     bool ha_votado;\r\n    // }\r\n\r\n    struct Votacion {\r\n        uint id_votacion;\r\n        string titulo;\r\n        address id_creador;\r\n        Estado estado;\r\n        mapping (uint => string) candidatos;\r\n        // mapping (uint => Votante) votantes;\r\n    }\r\n\r\n    mapping (uint => Votacion) public votaciones;\r\n\r\n    constructor() public {\r\n        nuevaVotacion(\"Votación a delegado de centro\");\r\n    }\r\n\r\n    function nuevaVotacion(string memory _titulo) public{\r\n        //Crear una nueva votación y añadirla a la lista de votaciones\r\n        //Emitir la nueva votación\r\n\r\n        numVotaciones ++;\r\n        votaciones[numVotaciones] = Votacion(numVotaciones, _titulo, msg.sender, estadoBase);\r\n    }\r\n    \r\n    function agregarCandidato() public{\r\n        //Si es el creador de la votación\r\n        //Si no existe el nuevo candidato en la votacion\r\n        //Añade el candidato a la votacion.\r\n    }\r\n\r\n    function accederVotacion() public{\r\n        //Crear un nuevo votante\r\n        //Si el estado de la votación es Abierto\r\n        //Añadir votante a la lista de votantes de la votación.\r\n    }\r\n\r\n    function estadoVotacionAbierto() public{\r\n        //Si es el creador de la votación\r\n        //Tomar la votación seleccionada\r\n        //Si el estado de la votación es Editando\r\n        //Votacion.estado = Estado.Abierta;\r\n    }\r\n    function estadoVotacionCerrado() public{\r\n        //Si es el creador de la votación\r\n        //Tomar la votación seleccionada\r\n        //Si el estado de la votacion es Abierto\r\n        //Votacion.estado = Estado.Cerrado;\r\n    }\r\n\r\n    function votar() public {\r\n        //Tomar la votación seleccionada\r\n        //Si el estado de la votación es Votando\r\n        //Si el votante está en la votación\r\n        //Cambia el estado de ha_votado a true\r\n        //Cambia la variable eleccion.\r\n    }\r\n\r\n}\r\n",
  "sourcePath": "C:/Users/ferna/Desktop/DemocrApp/contracts/ListaVotaciones.sol",
  "compiler": {
    "name": "solc",
    "version": "0.5.16+commit.9c3226ce.Emscripten.clang"
  },
  "schemaVersion": "3.3.3",
  "updatedAt": "2020-12-31T10:47:03.052Z",
  "networkType": "ethereum",
  "devdoc": {
    "methods": {}
  },
  "userdoc": {
    "methods": {}
  }
}