{
  "contractName": "ListaVotaciones",
  "abi": [
    {
      "inputs": [],
      "payable": false,
      "stateMutability": "nonpayable",
      "type": "constructor"
    },
    {
      "constant": true,
      "inputs": [],
      "name": "numVotaciones",
      "outputs": [
        {
          "internalType": "uint256",
          "name": "",
          "type": "uint256"
        }
      ],
      "payable": false,
      "stateMutability": "view",
      "type": "function"
    },
    {
      "constant": true,
      "inputs": [
        {
          "internalType": "uint256",
          "name": "",
          "type": "uint256"
        }
      ],
      "name": "votaciones",
      "outputs": [
        {
          "internalType": "uint256",
          "name": "id_votacion",
          "type": "uint256"
        },
        {
          "internalType": "string",
          "name": "titulo",
          "type": "string"
        },
        {
          "internalType": "address",
          "name": "id_creador",
          "type": "address"
        },
        {
          "internalType": "enum ListaVotaciones.Estado",
          "name": "estado",
          "type": "uint8"
        },
        {
          "internalType": "uint256",
          "name": "numCandidatos",
          "type": "uint256"
        },
        {
          "internalType": "uint256",
          "name": "numVotantes",
          "type": "uint256"
        }
      ],
      "payable": false,
      "stateMutability": "view",
      "type": "function"
    },
    {
      "constant": true,
      "inputs": [],
      "name": "sayHello",
      "outputs": [
        {
          "internalType": "string",
          "name": "",
          "type": "string"
        }
      ],
      "payable": false,
      "stateMutability": "pure",
      "type": "function"
    },
    {
      "constant": true,
      "inputs": [],
      "name": "getNumVotaciones",
      "outputs": [
        {
          "internalType": "uint256",
          "name": "",
          "type": "uint256"
        }
      ],
      "payable": false,
      "stateMutability": "view",
      "type": "function"
    },
    {
      "constant": true,
      "inputs": [
        {
          "internalType": "uint256",
          "name": "numVotacion",
          "type": "uint256"
        }
      ],
      "name": "getVotacion",
      "outputs": [
        {
          "internalType": "string",
          "name": "",
          "type": "string"
        }
      ],
      "payable": false,
      "stateMutability": "view",
      "type": "function"
    },
    {
      "constant": true,
      "inputs": [
        {
          "internalType": "uint256",
          "name": "numVotacion",
          "type": "uint256"
        },
        {
          "internalType": "uint256",
          "name": "numCandidato",
          "type": "uint256"
        }
      ],
      "name": "getCandidato",
      "outputs": [
        {
          "internalType": "string",
          "name": "",
          "type": "string"
        }
      ],
      "payable": false,
      "stateMutability": "view",
      "type": "function"
    },
    {
      "constant": false,
      "inputs": [
        {
          "internalType": "uint256",
          "name": "numVotacion",
          "type": "uint256"
        },
        {
          "internalType": "uint256",
          "name": "numCandidato",
          "type": "uint256"
        },
        {
          "internalType": "string",
          "name": "nuevoNombre",
          "type": "string"
        }
      ],
      "name": "setCandidato",
      "outputs": [],
      "payable": false,
      "stateMutability": "nonpayable",
      "type": "function"
    },
    {
      "constant": true,
      "inputs": [
        {
          "internalType": "uint256",
          "name": "numVotacion",
          "type": "uint256"
        },
        {
          "internalType": "uint256",
          "name": "numVoto",
          "type": "uint256"
        }
      ],
      "name": "getVotosEmitido",
      "outputs": [
        {
          "internalType": "address",
          "name": "",
          "type": "address"
        },
        {
          "internalType": "uint256",
          "name": "",
          "type": "uint256"
        }
      ],
      "payable": false,
      "stateMutability": "view",
      "type": "function"
    },
    {
      "constant": false,
      "inputs": [
        {
          "internalType": "string",
          "name": "_titulo",
          "type": "string"
        }
      ],
      "name": "nuevaVotacion",
      "outputs": [
        {
          "internalType": "uint256",
          "name": "",
          "type": "uint256"
        }
      ],
      "payable": false,
      "stateMutability": "nonpayable",
      "type": "function"
    },
    {
      "constant": false,
      "inputs": [
        {
          "internalType": "uint256",
          "name": "numVotacion",
          "type": "uint256"
        },
        {
          "internalType": "string",
          "name": "candidato",
          "type": "string"
        }
      ],
      "name": "agregarCandidato",
      "outputs": [],
      "payable": false,
      "stateMutability": "nonpayable",
      "type": "function"
    },
    {
      "constant": false,
      "inputs": [
        {
          "internalType": "uint256",
          "name": "numVotacion",
          "type": "uint256"
        }
      ],
      "name": "estadoVotacionAbierto",
      "outputs": [],
      "payable": false,
      "stateMutability": "nonpayable",
      "type": "function"
    },
    {
      "constant": false,
      "inputs": [
        {
          "internalType": "uint256",
          "name": "numVotacion",
          "type": "uint256"
        }
      ],
      "name": "estadoVotacionCerrado",
      "outputs": [],
      "payable": false,
      "stateMutability": "nonpayable",
      "type": "function"
    },
    {
      "constant": false,
      "inputs": [
        {
          "internalType": "uint256",
          "name": "numVotacion",
          "type": "uint256"
        },
        {
          "internalType": "uint256",
          "name": "candidato",
          "type": "uint256"
        }
      ],
      "name": "votar",
      "outputs": [],
      "payable": false,
      "stateMutability": "nonpayable",
      "type": "function"
    }
  ],
  "bytecode": "0x6080604052600060015534801561001557600080fd5b5061104d806100256000396000f3fe608060405234801561001057600080fd5b50600436106100cf5760003560e01c8063a4579ed31161008c578063e353e38511610066578063e353e385146104eb578063e741691c14610508578063ef5fb05b14610525578063f661ed741461052d576100cf565b8063a4579ed3146103d6578063b0e7e17d14610488578063dec14eb3146104ce576100cf565b8063057eacf6146100d457806328fcd7ed146101835780634fa5a16f1461019d5780634faf2a91146101c05780635acf57b514610266578063725f92a21461033e575b600080fd5b610181600480360360408110156100ea57600080fd5b8135919081019060408101602082013564010000000081111561010c57600080fd5b82018360208201111561011e57600080fd5b8035906020019184600183028401116401000000008311171561014057600080fd5b91908080601f016020809104026020016040519081016040528093929190818152602001838380828437600092019190915250929550610535945050505050565b005b61018b610851565b60408051918252519081900360200190f35b610181600480360360408110156101b357600080fd5b5080359060200135610857565b61018b600480360360208110156101d657600080fd5b8101906020810181356401000000008111156101f157600080fd5b82018360208201111561020357600080fd5b8035906020019184600183028401116401000000008311171561022557600080fd5b91908080601f0160208091040260200160405190810160405280939291908181526020018383808284376000920191909152509295506109ac945050505050565b6102836004803603602081101561027c57600080fd5b5035610a7b565b6040518087815260200180602001866001600160a01b03166001600160a01b031681526020018560028111156102b557fe5b60ff168152602001848152602001838152602001828103825287818151815260200191508051906020019080838360005b838110156102fe5781810151838201526020016102e6565b50505050905090810190601f16801561032b5780820380516001836020036101000a031916815260200191505b5097505050505050505060405180910390f35b6103616004803603604081101561035457600080fd5b5080359060200135610b48565b6040805160208082528351818301528351919283929083019185019080838360005b8381101561039b578181015183820152602001610383565b50505050905090810190601f1680156103c85780820380516001836020036101000a031916815260200191505b509250505060405180910390f35b610181600480360360608110156103ec57600080fd5b81359160208101359181019060608101604082013564010000000081111561041357600080fd5b82018360208201111561042557600080fd5b8035906020019184600183028401116401000000008311171561044757600080fd5b91908080601f016020809104026020016040519081016040528093929190818152602001838380828437600092019190915250929550610bf3945050505050565b6104ab6004803603604081101561049e57600080fd5b5080359060200135610c23565b604080516001600160a01b03909316835260208301919091528051918290030190f35b610181600480360360208110156104e457600080fd5b5035610c56565b6103616004803603602081101561050157600080fd5b5035610d56565b6101816004803603602081101561051e57600080fd5b5035610df8565b610361610f0b565b61018b610f32565b600082815260026020819052604090912001546001600160a01b031633146105a4576040805162461bcd60e51b815260206004820152601760248201527f4572726f722c206e6f20657320656c2063726561646f72000000000000000000604482015290519081900360640190fd5b60008281526002602081905260408220810154600160a01b900460ff16908111156105cb57fe5b1461061d576040805162461bcd60e51b815260206004820152601760248201527f4572726f722c20766f746163696f6e2061626965727461000000000000000000604482015290519081900360640190fd5b60008281526002602052604090206003015461067f576000828152600260209081526040808320600381015484526005018252909120825161066192840190610f38565b5060008281526002602052604090206003018054600101905561084d565b60005b60008381526002602052604090206003015481101561080457816040516020018082805190602001908083835b602083106106ce5780518252601f1990920191602091820191016106af565b6001836020036101000a03801982511681845116808217855250505050505090500191505060405160208183030381529060405280519060200120600260008581526020019081526020016000206005016000838152602001908152602001600020604051602001808280546001816001161561010002031660029004801561078e5780601f1061076c57610100808354040283529182019161078e565b820191906000526020600020905b81548152906001019060200180831161077a575b50509150506040516020818303038152906040528051906020012014156107fc576040805162461bcd60e51b815260206004820152601c60248201527f4572726f722c2063616e64696461746f20656e20766f746163696f6e00000000604482015290519081900360640190fd5b600101610682565b506000828152600260209081526040808320600381015484526005018252909120825161083392840190610f38565b506000828152600260205260409020600301805460010190555b5050565b60015481565b60005b6000838152600260205260409020600401548110156108f55760008381526002602090815260408083208484526006019091529020546001600160a01b03163314156108ed576040805162461bcd60e51b815260206004820152601760248201527f456c20766f74616e746520796120686120766f7461646f000000000000000000604482015290519081900360640190fd5b60010161085a565b5060016000838152600260208190526040909120810154600160a01b900460ff169081111561092057fe5b1461095c5760405162461bcd60e51b8152600401808060200182810382526024815260200180610ff56024913960400191505060405180910390fd5b600082815260026020818152604080842060048101805486526006909101835281852080546001600160a01b03191633179055805485529084206001908101959095559490925290528154019055565b6001805481018082556040805160c081018252828152602080820186815233838501526000606084018190526080840181905260a0840181905294855260028252928420825181559251805194959294610a0d938501929190910190610f38565b506040820151600282810180546001600160a01b0319166001600160a01b03909316929092178083556060850151929160ff60a01b1990911690600160a01b908490811115610a5857fe5b02179055506080820151600382015560a090910151600490910155505060015490565b60026020818152600092835260409283902080546001808301805487519281161561010002600019011695909504601f8101859004850282018501909652858152909491939092909190830182828015610b165780601f10610aeb57610100808354040283529160200191610b16565b820191906000526020600020905b815481529060010190602001808311610af957829003601f168201915b505050506002830154600384015460049094015492936001600160a01b03821693600160a01b90920460ff1692509086565b6000828152600260208181526040808420858552600501825292839020805484516001821615610100026000190190911693909304601f81018390048302840183019094528383526060939091830182828015610be65780601f10610bbb57610100808354040283529160200191610be6565b820191906000526020600020905b815481529060010190602001808311610bc957829003601f168201915b5050505050905092915050565b600083815260026020908152604080832085845260050182529091208251610c1d92840190610f38565b50505050565b600091825260026020908152604080842092845260069092019052902080546001909101546001600160a01b0390911691565b600081815260026020819052604090912001546001600160a01b03163314610cc5576040805162461bcd60e51b815260206004820152601a60248201527f4572726f722c2066756e63696f6e2064656c2063726561646f72000000000000604482015290519081900360640190fd5b60008181526002602081905260408220810154600160a01b900460ff1690811115610cec57fe5b14610d285760405162461bcd60e51b8152600401808060200182810382526024815260200180610fd16024913960400191505060405180910390fd5b60008181526002602081905260409091200180546001919060ff60a01b1916600160a01b835b021790555050565b6000818152600260208181526040928390206001908101805485519281161561010002600019011693909304601f8101839004830282018301909452838152606093909291830182828015610dec5780601f10610dc157610100808354040283529160200191610dec565b820191906000526020600020905b815481529060010190602001808311610dcf57829003601f168201915b50505050509050919050565b600081815260026020819052604090912001546001600160a01b03163314610e67576040805162461bcd60e51b815260206004820152601a60248201527f4572726f722c2066756e63696f6e2064656c2063726561646f72000000000000604482015290519081900360640190fd5b60026000828152600260208190526040909120810154600160a01b900460ff1690811115610e9157fe5b1415610ee4576040805162461bcd60e51b815260206004820152601960248201527f4572726f722c2066756e63696f6e20656e2065646963696f6e00000000000000604482015290519081900360640190fd5b60008181526002602081905260409091208101805460ff60a01b1916600160a01b83610d4e565b60408051808201909152600c81526b48656c6c6f20576f726c642160a01b60208201525b90565b60015490565b828054600181600116156101000203166002900490600052602060002090601f016020900481019282601f10610f7957805160ff1916838001178555610fa6565b82800160010185558215610fa6579182015b82811115610fa6578251825591602001919060010190610f8b565b50610fb2929150610fb6565b5090565b610f2f91905b80821115610fb25760008155600101610fbc56fe4572726f722c20766f746163696f6e2079612061626965727461206f20636572726164614572726f722c20766f746163696f6e20656e2065646963696f6e206f2063657272616461a265627a7a723158200dced2bad7346ce1aa583b250bd654e6fa99fae8414fa337186f5b0292a6291b64736f6c63430005100032",
  "source": "pragma solidity >=0.5.0;\r\n\r\ncontract ListaVotaciones{\r\n    enum Estado {Editando, Abierto, Cerrado} Estado estado;\r\n    Estado constant estadoBase = Estado.Editando;\r\n    uint public numVotaciones = 0;\r\n\r\n    struct Votacion{\r\n        uint id_votacion;\r\n        string titulo;\r\n        address id_creador;\r\n        Estado estado;\r\n        uint numCandidatos;\r\n        uint numVotantes;\r\n        mapping (uint => string) candidatos;\r\n        mapping (uint => VotoEmitido) votosEmitidos;\r\n    }\r\n    struct VotoEmitido{\r\n        address id_votante;\r\n        uint elegido;\r\n    }\r\n\r\n    mapping (uint => Votacion) public votaciones;\r\n\r\n    constructor() public {\r\n        //nuevaVotacion(\"Votación a delegado de centro\");\r\n\r\n    }\r\n    function sayHello() public pure returns (string memory) {\r\n        return 'Hello World!';\r\n    }\r\n    function getNumVotaciones() public view returns(uint){\r\n        return numVotaciones;\r\n    }\r\n    function getVotacion(uint numVotacion) public view returns(string memory){\r\n        return votaciones[numVotacion].titulo;\r\n    }\r\n    function getCandidato(uint numVotacion, uint numCandidato) public view returns(string memory){\r\n        return votaciones[numVotacion].candidatos[numCandidato];\r\n    }\r\n    function setCandidato(uint numVotacion, uint numCandidato, string memory nuevoNombre) public{\r\n        votaciones[numVotacion].candidatos[numCandidato] = nuevoNombre;\r\n    }\r\n    function getVotosEmitido(uint numVotacion, uint numVoto) public view returns(address, uint){\r\n        //Devuelve el id del votante y su voto elegido. Sirve para hacer el recuento de votos.\r\n        return (votaciones[numVotacion].votosEmitidos[numVoto].id_votante, votaciones[numVotacion].votosEmitidos[numVoto].elegido);\r\n    }\r\n    function nuevaVotacion(string memory _titulo) public returns(uint){\r\n        //Crear una nueva votación y añadirla a la lista de votaciones\r\n        //Emitir la nueva votación\r\n        numVotaciones ++;\r\n        votaciones[numVotaciones] = Votacion(numVotaciones, _titulo, msg.sender, estadoBase, 0, 0);\r\n        return numVotaciones;\r\n    }\r\n    function agregarCandidato(uint numVotacion, string memory candidato) public {\r\n        //Si es el creador de la votación\r\n        require(\r\n            msg.sender == votaciones[numVotacion].id_creador, \"Error, no es el creador\"\r\n        );\r\n        //Si la votación se encuentra en el estado de ediccion.\r\n        require(\r\n            votaciones[numVotacion].estado == Estado.Editando, \"Error, votacion abierta\"\r\n        );\r\n\r\n        // Si no hay ningún candidato en la votación se añade\r\n        if(votaciones[numVotacion].numCandidatos==0){\r\n            votaciones[numVotacion].candidatos[votaciones[numVotacion].numCandidatos] = candidato;\r\n            votaciones[numVotacion].numCandidatos ++;\r\n        }\r\n        // Si hay alguno se comprueba que el nuevo no exista ya.\r\n        else{\r\n            for (uint i = 0; i < votaciones[numVotacion].numCandidatos; i++){\r\n                // Comparación de string en soldity @-@\r\n                if(keccak256(abi.encodePacked(votaciones[numVotacion].candidatos[i]))==keccak256(abi.encodePacked(candidato))){\r\n                    revert(\"Error, candidato en votacion\");\r\n                }\r\n            }        \r\n            //Si no existe el nuevo candidato en la votacion\r\n            //Añade el candidato a la votacion.\r\n            votaciones[numVotacion].candidatos[votaciones[numVotacion].numCandidatos] = candidato;\r\n            votaciones[numVotacion].numCandidatos ++;\r\n        }\r\n\r\n    }\r\n    function estadoVotacionAbierto(uint numVotacion) public{\r\n        //Si es el creador de la votación\r\n        require(\r\n            msg.sender == votaciones[numVotacion].id_creador,\r\n            \"Error, funcion del creador\"\r\n        );\r\n        //Si el estado de la votación es Editando\r\n        require(\r\n            votaciones[numVotacion].estado == Estado.Editando,\r\n            \"Error, votacion ya abierta o cerrada\"\r\n        );\r\n        //Tomar la votación seleccionada y cambiar el estado a Abierto\r\n        votaciones[numVotacion].estado = Estado.Abierto;\r\n    }\r\n    function estadoVotacionCerrado(uint numVotacion) public{\r\n        //Si es el creador de la votación\r\n        require(\r\n            msg.sender == votaciones[numVotacion].id_creador,\r\n            \"Error, funcion del creador\"\r\n        );\r\n        //Si el estado de la votacion es Editando o Abierto\r\n        require(\r\n            votaciones[numVotacion].estado != Estado.Cerrado,\r\n            \"Error, funcion en edicion\"\r\n        ); \r\n        //Tomar la votación seleccionada y cambiar el estado a Cerrado\r\n        votaciones[numVotacion].estado = Estado.Cerrado;\r\n    }\r\n    function votar(uint numVotacion, uint candidato) public {\r\n        //Tomar la votación seleccionada\r\n        //Si el estado de la votación es Votando\r\n        for (uint i = 0; i < votaciones[numVotacion].numVotantes; i++){\r\n            if(votaciones[numVotacion].votosEmitidos[i].id_votante == msg.sender){\r\n                    revert(\"El votante ya ha votado\");\r\n            }\r\n        }    \r\n        require(\r\n            votaciones[numVotacion].estado == Estado.Abierto,\r\n            \"Error, votacion en edicion o cerrada\"\r\n        ); \r\n        //Cambia la variable eleccion.\r\n        votaciones[numVotacion].votosEmitidos[votaciones[numVotacion].numVotantes].id_votante = msg.sender;\r\n        votaciones[numVotacion].votosEmitidos[votaciones[numVotacion].numVotantes].elegido = candidato;\r\n        votaciones[numVotacion].numVotantes ++;\r\n    }\r\n\r\n}\r\n",
  "sourcePath": "C:/Users/ferna/Desktop/DemocrApp/contracts/ListaVotaciones.sol",
  "compiler": {
    "name": "solc",
    "version": "0.5.16+commit.9c3226ce.Emscripten.clang"
  },
  "schemaVersion": "3.3.3",
  "updatedAt": "2021-02-07T12:12:38.564Z",
  "networkType": "ethereum",
  "devdoc": {
    "methods": {}
  },
  "userdoc": {
    "methods": {}
  }
}