{
  "contractName": "Purchase",
  "abi": [
    {
      "inputs": [],
      "payable": true,
      "stateMutability": "payable",
      "type": "constructor"
    },
    {
      "anonymous": false,
      "inputs": [],
      "name": "Aborted",
      "type": "event"
    },
    {
      "anonymous": false,
      "inputs": [],
      "name": "ItemReceived",
      "type": "event"
    },
    {
      "anonymous": false,
      "inputs": [],
      "name": "PurchaseConfirmed",
      "type": "event"
    },
    {
      "constant": true,
      "inputs": [],
      "name": "buyer",
      "outputs": [
        {
          "internalType": "address payable",
          "name": "",
          "type": "address"
        }
      ],
      "payable": false,
      "stateMutability": "view",
      "type": "function"
    },
    {
      "constant": true,
      "inputs": [],
      "name": "seller",
      "outputs": [
        {
          "internalType": "address payable",
          "name": "",
          "type": "address"
        }
      ],
      "payable": false,
      "stateMutability": "view",
      "type": "function"
    },
    {
      "constant": true,
      "inputs": [],
      "name": "state",
      "outputs": [
        {
          "internalType": "enum Purchase.State",
          "name": "",
          "type": "uint8"
        }
      ],
      "payable": false,
      "stateMutability": "view",
      "type": "function"
    },
    {
      "constant": true,
      "inputs": [],
      "name": "value",
      "outputs": [
        {
          "internalType": "uint256",
          "name": "",
          "type": "uint256"
        }
      ],
      "payable": false,
      "stateMutability": "view",
      "type": "function"
    },
    {
      "constant": false,
      "inputs": [],
      "name": "abort",
      "outputs": [],
      "payable": false,
      "stateMutability": "nonpayable",
      "type": "function"
    },
    {
      "constant": false,
      "inputs": [],
      "name": "confirmPurchase",
      "outputs": [],
      "payable": true,
      "stateMutability": "payable",
      "type": "function"
    },
    {
      "constant": false,
      "inputs": [],
      "name": "confirmReceived",
      "outputs": [],
      "payable": false,
      "stateMutability": "nonpayable",
      "type": "function"
    }
  ],
  "bytecode": "0x6080604052600180546001600160a01b031916331790556002340460008190556002023414610075576040805162461bcd60e51b815260206004820152601560248201527f56616c75652068617320746f206265206576656e2e0000000000000000000000604482015290519081900360640190fd5b61051b806100846000396000f3fe6080604052600436106100705760003560e01c80637150d8ae1161004e5780637150d8ae146100e457806373fac6f0146100f9578063c19d93fb1461010e578063d69606971461014757610070565b806308551a531461007557806335a063b4146100a65780633fa4f245146100bd575b600080fd5b34801561008157600080fd5b5061008a61014f565b604080516001600160a01b039092168252519081900360200190f35b3480156100b257600080fd5b506100bb61015e565b005b3480156100c957600080fd5b506100d2610299565b60408051918252519081900360200190f35b3480156100f057600080fd5b5061008a61029f565b34801561010557600080fd5b506100bb6102ae565b34801561011a57600080fd5b5061012361041a565b6040518082600281111561013357fe5b60ff16815260200191505060405180910390f35b6100bb61042a565b6001546001600160a01b031681565b6001546001600160a01b031633146101bd576040805162461bcd60e51b815260206004820152601a60248201527f4f6e6c792073656c6c65722063616e2063616c6c20746869732e000000000000604482015290519081900360640190fd5b60008060028054600160a01b900460ff16908111156101d857fe5b1461021b576040805162461bcd60e51b815260206004820152600e60248201526d24b73b30b634b21039ba30ba329760911b604482015290519081900360640190fd5b6040517f72c874aeff0b183a56e2b79c71b46e1aed4dee5e09862134b8821ba2fddbf8bf90600090a160028054819060ff60a01b1916600160a01b8202179055506001546040516001600160a01b03909116904780156108fc02916000818181858888f19350505050158015610295573d6000803e3d6000fd5b5050565b60005481565b6002546001600160a01b031681565b6002546001600160a01b0316331461030d576040805162461bcd60e51b815260206004820152601960248201527f4f6e6c792062757965722063616e2063616c6c20746869732e00000000000000604482015290519081900360640190fd5b60018060028054600160a01b900460ff169081111561032857fe5b1461036b576040805162461bcd60e51b815260206004820152600e60248201526d24b73b30b634b21039ba30ba329760911b604482015290519081900360640190fd5b6040517fe89152acd703c9d8c7d28829d443260b411454d45394e7995815140c8cbcbcf790600090a16002805460ff60a01b1916600160a11b1790819055600080546040516001600160a01b039093169281156108fc0292818181858888f193505050501580156103e0573d6000803e3d6000fd5b506001546040516001600160a01b03909116904780156108fc02916000818181858888f19350505050158015610295573d6000803e3d6000fd5b600254600160a01b900460ff1681565b60008060028054600160a01b900460ff169081111561044557fe5b14610488576040805162461bcd60e51b815260206004820152600e60248201526d24b73b30b634b21039ba30ba329760911b604482015290519081900360640190fd5b60005460020234148061049a57600080fd5b6040517fd5d55c8a68912e9a110618df8d5e2e83b8d83211c57a8ddd1203df92885dc88190600090a15050600280546001600160a01b031916331760ff60a01b1916600160a01b17905556fea265627a7a72315820b9c7d34ce9351874edd4d0fd10097d4b53d26b4101c98144569a1c2f2f92ec0b64736f6c63430005100032",
  "source": "pragma solidity >=0.4.22 <0.6.0;\r\n\r\ncontract Purchase {\r\n    uint public value;\r\n    address payable public seller;\r\n    address payable public buyer;\r\n    enum State { Created, Locked, Inactive }\r\n    State public state;\r\n\r\n    // Ensure that `msg.value` is an even number.\r\n    // Division will truncate if it is an odd number.\r\n    // Check via multiplication that it wasn't an odd number.\r\n    constructor() public payable {\r\n        seller = msg.sender;\r\n        value = msg.value / 2;\r\n        require((2 * value) == msg.value, \"Value has to be even.\");\r\n    }\r\n\r\n    modifier condition(bool _condition) {\r\n        require(_condition);\r\n        _;\r\n    }\r\n\r\n    modifier onlyBuyer() {\r\n        require(\r\n            msg.sender == buyer,\r\n            \"Only buyer can call this.\"\r\n        );\r\n        _;\r\n    }\r\n\r\n    modifier onlySeller() {\r\n        require(\r\n            msg.sender == seller,\r\n            \"Only seller can call this.\"\r\n        );\r\n        _;\r\n    }\r\n\r\n    modifier inState(State _state) {\r\n        require(\r\n            state == _state,\r\n            \"Invalid state.\"\r\n        );\r\n        _;\r\n    }\r\n\r\n    event Aborted();\r\n    event PurchaseConfirmed();\r\n    event ItemReceived();\r\n\r\n    /// Abort the purchase and reclaim the ether.\r\n    /// Can only be called by the seller before\r\n    /// the contract is locked.\r\n    function abort()\r\n        public\r\n        onlySeller\r\n        inState(State.Created)\r\n    {\r\n        emit Aborted();\r\n        state = State.Inactive;\r\n        seller.transfer(address(this).balance);\r\n    }\r\n\r\n    /// Confirm the purchase as buyer.\r\n    /// Transaction has to include `2 * value` ether.\r\n    /// The ether will be locked until confirmReceived\r\n    /// is called.\r\n    function confirmPurchase()\r\n        public\r\n        inState(State.Created)\r\n        condition(msg.value == (2 * value))\r\n        payable\r\n    {\r\n        emit PurchaseConfirmed();\r\n        buyer = msg.sender;\r\n        state = State.Locked;\r\n    }\r\n\r\n    /// Confirm that you (the buyer) received the item.\r\n    /// This will release the locked ether.\r\n    function confirmReceived()\r\n        public\r\n        onlyBuyer\r\n        inState(State.Locked)\r\n    {\r\n        emit ItemReceived();\r\n        // It is important to change the state first because\r\n        // otherwise, the contracts called using `send` below\r\n        // can call in again here.\r\n        state = State.Inactive;\r\n\r\n        // NOTE: This actually allows both the buyer and the seller to\r\n        // block the refund - the withdraw pattern should be used.\r\n\r\n        buyer.transfer(value);\r\n        seller.transfer(address(this).balance);\r\n    }\r\n}",
  "sourcePath": "C:/Users/ferna/Desktop/DemocrApp/contracts/Purchase.sol",
  "compiler": {
    "name": "solc",
    "version": "0.5.16+commit.9c3226ce.Emscripten.clang"
  },
  "schemaVersion": "3.3.3",
  "updatedAt": "2021-02-06T10:02:27.922Z",
  "devdoc": {
    "methods": {}
  },
  "userdoc": {
    "methods": {
      "abort()": {
        "notice": "Abort the purchase and reclaim the ether. Can only be called by the seller before the contract is locked."
      },
      "confirmPurchase()": {
        "notice": "Confirm the purchase as buyer. Transaction has to include `2 * value` ether. The ether will be locked until confirmReceived is called."
      },
      "confirmReceived()": {
        "notice": "Confirm that you (the buyer) received the item. This will release the locked ether."
      }
    }
  }
}