{
  "contractName": "TodoList",
  "abi": [
    {
      "constant": true,
      "inputs": [],
      "name": "taskCount",
      "outputs": [
        {
          "internalType": "uint256",
          "name": "",
          "type": "uint256"
        }
      ],
      "payable": false,
      "stateMutability": "view",
      "type": "function"
    }
  ],
  "bytecode": "0x608060405260008055348015601357600080fd5b506084806100226000396000f3fe6080604052348015600f57600080fd5b506004361060285760003560e01c8063b6cb58a514602d575b600080fd5b60336049565b6040518082815260200191505060405180910390f35b6000548156fea265627a7a72315820e78a2d90ea873746d2238a8b8e771e6f9c2035c35f9a94d36ab08c9fc6b6353364736f6c63430005100032",
  "source": "pragma solidity ^0.5.0;\r\n\r\ncontract TodoList{\r\n    uint public taskCount = 0;\r\n    \r\n}",
  "sourcePath": "C:/Users/ferna/Desktop/DemocrApp/contracts/TodoList.sol",
  "compiler": {
    "name": "solc",
    "version": "0.5.16+commit.9c3226ce.Emscripten.clang"
  },
  "schemaVersion": "3.3.3",
  "updatedAt": "2020-12-28T17:22:06.073Z",
  "networkType": "ethereum",
  "devdoc": {
    "methods": {}
  },
  "userdoc": {
    "methods": {}
  }
}